:020000040800F2
:1000000000000220AD0600081D0700081D070008BB
:100010001D0700081D0700081D070008000000005C
:100020000000000000000000000000001D070008A4
:100030001D070008000000001D070008A1060008B9
:100040001D0700081D0700081D0700081D07000800
:100050001D0700081D070008DD030008EB0300086A
:10006000F903000807040008150400081D0700082C
:100070001D0700081D0700081D0700081D070008D0
:100080001D0700081D0700081D0700081D070008C0
:100090001D0700081D0700081D070008C904000807
:1000A0001D0700081D0700081D0700081D070008A0
:1000B0001D0700081D0700081D0700081D07000890
:1000C0001D0700081D0700081D0700081D07000880
:1000D0001D07000865030008790300088D03000868
:1000E000250400081D0700081D0700081D0700085B
:1000F0001D0700081D0700081D0700081D07000850
:100100001D0700081D0700081D0700081D0700083F
:10011000A1030008B50300081D0700081D0700081B
:100120001D0700081D0700081D0700081D0700081F
:100130001D0700081D0700081D0700081D0700080F
:100140001D0700081D0700081D0700081D070008FF
:100150001D0700081D0700081D070008C903000847
:100160001D0700081D0700081D0700081D070008DF
:100170001D0700081D0700081D07000800000000FB
:100180001D0700081D07000880B500AF4021024888
:1001900000F0C5FB00BF80BD0000024080B500AF8D
:1001A00000F024FD164B1B6B154A43F0010313634B
:1001B000134B1B6B124A43F010031363104B5B6C21
:1001C0000F4A43F48043536400F026F800F09EF891
:1001D0000C4800F001FA80210B4800F0A0FB0D2232
:1001E0000A490B4801F0D4F80B220A49084801F0EB
:1001F000F1F84FF4FA7000F025FA00BFEBE700BF0A
:1002000000380240409002000000024050150008F3
:10021000180000203C00002080B584B000AFC0234F
:100220003B810123FB720023BB7200233B7300233D
:10023000BB7300237B73304A07F1080353602E4BD6
:100240002E4A1A602C4800F048FB10233B81002303
:10025000FB720123BB7200233B730123BB7300239A
:100260007B73254A07F108035360234B244A1A6025
:10027000214800F032FB1023BB800423BB71012313
:10028000FB71204A3B1D13601E4B1F4A5A601D48DC
:1002900000F044FE4FF400733B810223FB72002305
:1002A0003B730023BB7303237B730723FB73124A47
:1002B00007F108035360104B104A1A600E4800F013
:1002C0000CFB4FF480633B810223FB7200233B73E2
:1002D0000023BB7303237B730723FB73064A07F1D9
:1002E00008035360044B054A1A60034800F0F5FA0E
:1002F00000BF1037BD4680BD08000020000002404E
:1003000000100240100000208901000880B584B070
:1003100000AF4FF4E1337B600223FB7200237B725A
:100320000023BB7200233B7200233B730A4B0B4A32
:100330001A60094A3B1D5360094B5B6C084A43F045
:1003400010035364044800F05DFF252000F002F91B
:1003500000BF1037BD4680BD1800002000100140CE
:100360000038024080B500AF024801F055F800BFE8
:1003700080BD00BF1800002080B500AF024801F02A
:100380004BF800BF80BD00BF1800002080B500AF53
:10039000024801F041F800BF80BD00BF18000020F6
:1003A00080B500AF024801F037F800BF80BD00BF44
:1003B0001800002080B500AF024801F02DF800BF02
:1003C00080BD00BF1800002080B500AF024801F0DA
:1003D00023F800BF80BD00BF1800002080B500AF2B
:1003E000012000F05DFE00BF80BD80B500AF02209F
:1003F00000F056FE00BF80BD80B500AF042000F0C5
:100400004FFE00BF80BD80B500AF082000F048FE61
:1004100000BF80BD80B500AF102000F041FE00BFDE
:1004200080BD000080B582B000AF0A23FB7100BF21
:10043000FB790F2B3ED8234B5A69FB79012101FA36
:1004400003F31340002B37D0FB790F2B2BD00F2B4E
:100450002EDC0E2B22D00E2B2ADC0D2B19D00D2BCF
:1004600026DC0C2B10D00C2B22DC0A2B02D00B2B01
:1004700005D01DE04FF4806000F012FE19E04FF44B
:10048000006000F00DFE14E04FF4805000F008FE14
:100490000FE04FF4005000F003FE0AE04FF48040FC
:1004A00000F0FEFD05E04FF4004000F0F9FD00E033
:1004B00000BF01E000BF00E000BF00BF0837BD463D
:1004C00080BD00BF003C014080B582B000AF052375
:1004D000FB7100BFFB79092B32D81D4B5A69FB79A0
:1004E000012101FA03F31340002B2BD0FB79092BD8
:1004F0001FD0092B22DC082B16D0082B1EDC072B63
:100500000ED0072B1ADC052B02D0062B04D015E0E9
:10051000202000F0C5FD12E0402000F0C1FD0EE0FB
:10052000802000F0BDFD0AE04FF4807000F0B8FDBF
:1005300005E04FF4007000F0B3FD00E000BF01E003
:1005400000BF00E000BF00BF0837BD4680BD00BF50
:10055000003C014080B483B000AF0346FB710C4AFD
:10056000FB795B09DBB252F82320FB7903F01F0310
:10057000012101FA03F30648F9794909C9B2134385
:1005800040F8213000BF0C37BD4680BC704700BF2B
:1005900000E100E080B483B000AF0346FB710D4A78
:1005A000FB795B09DBB2603352F82320FB7903F05F
:1005B0001F03012101FA03F30648F9794909C9B279
:1005C0001A4301F1600340F8232000BF0C37BD46F9
:1005D00080BC704700E100E080B483B000AF786079
:1005E0007B68002B26D07B68B3F1807F22D2144B2E
:1005F0001B68134A23F001031360114B00229A6019
:100600000F4B00221A600E4A7B68013B53600C4B73
:100610001B680B4A43F004031360094B1B68084A2C
:1006200043F002031360064B1B68054A43F00103C5
:10063000136000E000BF0C37BD4680BC704700BFB0
:1006400010E000E080B584B000AF786000F010F8F2
:10065000F86000BF00F00CF80246FB68D31A7A6815
:100660009A42F7D800BF00BF1037BD4680BD0000DA
:1006700080B400AF024B1B681846BD4680BC704773
:100680004800002080B400AF044B1B680133034ACC
:10069000136000BFBD4680BC704700BF480000200B
:1006A00080B500AFFFF7EEFF00BF80BD80B584B01E
:1006B00000AF154A154BD31AFB60144BBB60144BAB
:1006C0007B6007E07A68531C7B60BB68591CB9608B
:1006D00012781A70FB685A1EFA60002BF2D10D4A8C
:1006E0000D4BD31A3B600C4BBB6004E0BB685A1C3B
:1006F000BA6000221A703B685A1E3A60002BF5D18E
:10070000FFF74CFD00BFFDE70800002000000020BF
:10071000901500088C0000200800002080B400AF75
:1007200000BFFDE780B485B000AF78600B46FB707A
:100730007B685B68DB78FB737B681B681968FB78F8
:100740005B00032202FA03F3DA437B681B680A406A
:100750001A607B681B681A68F97BFB785B0001FAFA
:1007600003F319467B681B680A431A607B685B6861
:100770001B79BB737B681B685968FB78012202FAFE
:1007800003F3DA437B681B680A405A607B681B6886
:100790005A68B97BFB7801FA03F319467B681B683A
:1007A0000A435A607B685B685B797B737B681B6874
:1007B0009968FB785B00032202FA03F3DA437B6853
:1007C0001B680A409A607B681B689A68797BFB7893
:1007D0005B0001FA03F319467B681B680A439A60C1
:1007E0007B685B689B793B737B681B68D968FB7887
:1007F0005B00032202FA03F3DA437B681B680A40BA
:10080000DA607B681B68DA68397BFB785B0001FA89
:1008100003F319467B681B680A43DA607B685B68F0
:10082000DB79FB72FB7B022B3AD1FB78072B1AD8C2
:100830007B681B68196AFB789B000F2202FA03F39E
:10084000DA437B681B680A401A627B681B681A6A75
:10085000F97AFB789B0001FA03F319467B681B6861
:100860000A431A621CE0FB78083BBB727B681B687A
:10087000596ABB7A9B000F2202FA03F3DA437B68C2
:100880001B680A405A627B681B685A6AF97ABB7A0D
:100890009B0001FA03F319467B681B680A435A62FE
:1008A0007B685B689B787B727B7A012B07D1FA7837
:1008B0007B681B68012101FA02F29A6108E0FB786B
:1008C00003F110027B681B68012101FA02F29A61B0
:1008D00000BF1437BD4680BC704780B584B000AF00
:1008E00078600023FB7312E07B685B681B881A4604
:1008F000FB7B42FA03F303F00103002B04D0FB7BE4
:1009000019467868FFF70EFFFB7B0133FB73FB7B17
:100910000F2BE9D900BF00BF1037BD4680BD80B4A2
:1009200083B000AF78600B467B807B685A697B8818
:100930005A407B685A6100BF0C37BD4680BC704787
:1009400080B400AF084B1B68074A43F001031360F3
:1009500000BF054B1B6803F00203002BF9D000BF5A
:1009600000BFBD4680BC70470038024080B400AF75
:10097000084B1B68074A43F48033136000BF054BE4
:100980001B6803F40033002BF9D000BF00BFBD4645
:1009900080BC70470038024080B400AF084B1B6831
:1009A000074A43F08073136000BF054B1B6803F0D8
:1009B0000073002BF9D000BF00BFBD4680BC70475C
:1009C0000038024080B400AF084B1B68074A23F090
:1009D0008073136000BF054B1B6803F00073002B8E
:1009E000F9D100BF00BFBD4680BC7047003802404F
:1009F00080B483B000AF7860174B9B68164A23F031
:100A0000F0039360144B9A687B689B681B01124942
:100A100013438B60104B9B680F4A23F4E0539360A1
:100A20000D4B9A687B68DB689B020B4913438B6014
:100A3000094B9B68084A23F460439360064B9A680D
:100A40007B681B695B03044913438B6000BF0C3751
:100A5000BD4680BC704700BF0038024080B582B000
:100A600000AF78607B685B68002B18D1FFF768FFE8
:100A70007868FFF7BDFF7B681B88DBB2184600F083
:100A800087F9594B9B68584A23F00303936000BFD2
:100A9000554B9B6803F00C03002BF9D1A0E07B6859
:100AA0005B68012B1ED1FFF761FF7868FFF7A0FF9D
:100AB0007B681B88DBB2184600F06AF94A4B9B68DA
:100AC000494A23F003039360474B9B68464A43F02F
:100AD0000103936000BF444B9B6803F00C03042B9D
:100AE000F9D17DE07B685B68022B79D1FFF76AFF63
:100AF0007868FFF77DFF7B681B88DBB2184600F043
:100B000047F9394B5B68384A23F03F035360364B53
:100B10005A687B685B69344913434B60324B5B68AE
:100B2000314A23F4FF4323F0400353602E4B5A68AD
:100B30007B689B699B012C4913434B602A4B5B6884
:100B4000294A23F440335360274B5A687B68DB699A
:100B50001B04254913434B60234B5B68224A23F057
:100B600070635360204B5A687B681B6A1B061E49E2
:100B700013434B607B6893F82430002B08D11A4B49
:100B80005B68194A23F480035360FFF7D9FE12E033
:100B90007B6893F82430012B0DD1134B5B68124A0C
:100BA00023F480035360104B5B680F4A43F48003C7
:100BB0005360FFF7DBFEFFF7EFFE0B4B9B680A4A23
:100BC00023F003039360084B9B68074A43F002033A
:100BD000936000BF044B9B6803F00C03082BF9D112
:100BE00000BF0837BD4680BD0038024080B58AB0DE
:100BF00000AF02237B60A8233B80012387F82430C9
:100C000008237B614FF4A873BB610023FB610723BA
:100C10003B620023BB600523FB6004233B613B4632
:100C20001846FFF71BFF00BF2837BD4680BD0000F8
:100C300080B489B000AF294B9B689B0803F0030385
:100C40007B617B69022B0FD07B69022B3DD87B69CE
:100C5000002B03D07B69012B03D036E0204BFB61D6
:100C600036E0204BFB6133E01C4B5B6803F48003F0
:100C70003B611A4B5B6803F03F03FB60174B5B68FB
:100C80009B09C3F30803BB60144B5B681B0C03F0A8
:100C9000030301335B007B603B69002B05D0114AE5
:100CA000FB68B2FBF3F3BB6104E00D4AFB68B2FBE7
:100CB000F3F3BB61BB69BA6802FB03F33B603A68BC
:100CC0007B68B2FBF3F3FB6102E0054BFB6100BF05
:100CD000FB6918462437BD4680BC70470038024087
:100CE0000024F40000127A0080B582B000AF0A4BF5
:100CF0009B681B0903F00F037B60FFF799FF024617
:100D000006497B6831F81330B2FBF3F33B603B6874
:100D100018460837BD4680BD0038024060150008FF
:100D200080B582B000AF0A4B9B689B0A03F00703B3
:100D30007B60FFF7D9FF024606497B680B441B78AE
:100D4000B2FBF3F33B603B6818460837BD4680BDF5
:100D5000003802408015000880B582B000AF0A4B11
:100D60009B685B0B03F007037B60FFF7BDFF024648
:100D700006497B680B441B78B2FBF3F33B603B688E
:100D800018460837BD4680BD00380240801500086F
:100D900080B483B000AF0346FB71FB791E2B0AD8E9
:100DA0004A4B1B68494A23F007031360474B474AE5
:100DB0001B68136084E0FB791E2B0FD9FB793C2B59
:100DC0000CD8424B1B68414A23F0070313603F4B8A
:100DD0001B683E4A43F00103136071E0FB793C2B32
:100DE0000FD9FB795A2B0CD8384B1B68374A23F0A4
:100DF00007031360354B1B68344A43F0020313604A
:100E00005EE0FB795A2B0FD9FB79782B0CD82F4B4E
:100E10001B682E4A23F0070313602C4B1B682B4AD8
:100E200043F0030313604BE0FB79782B0FD9FB7978
:100E3000962B0CD8254B1B68244A23F0070313601C
:100E4000224B1B68214A43F00403136038E0FB790E
:100E5000962B0FD9FB79A82B0CD81C4B1B681B4A6F
:100E600023F007031360194B1B68184A43F005036E
:100E7000136025E0FB79A82B0FD9FB79B42B0CD894
:100E8000124B1B68114A23F0070313600F4B1B68BA
:100E90000E4A43F00603136012E0FB79B42B0FD91E
:100EA000FB79D82B0CD8094B1B68084A23F00703A1
:100EB0001360064B1B68054A43F007031360FFE706
:100EC00000BF0C37BD4680BC704700BF003C0240ED
:100ED00080B485B000AF03463960FB800023FB730C
:100EE00010E0FA88FB7B22FA03F303F00103002BE6
:100EF00005D0FB7B08493A6841F8232006E0FB7BDC
:100F00000133FB73FB7B0F2BEBD900BF00BF143702
:100F1000BD4680BC704700BF4C00002090B585B036
:100F200000AF78605B4B1B687A68126812881146C4
:100F3000584A0B431360574B5B687A6812681288F3
:100F40001146544A0B4353607B681B68DB78002BC7
:100F500009D1504B9B687A681268128811464D4A35
:100F60000B43936020E07B681B68DB78012B09D181
:100F7000484BDB687A68126812881146454A0B4371
:100F8000D36011E0434B9B687A681268128811465F
:100F9000404A0B4393603F4BDB687A6812681288C3
:100FA00011463C4A0B43D3600023FB7361E07B682E
:100FB0001B681B881A46FB7B22FA03F303F001032C
:100FC000002B53D0344AFB7B9B08DBB2023352F830
:100FD0002320FB7B03F003039B000F2101FA03F3A3
:100FE000DB432D48F97B8908C9B21A408B1C40F8B5
:100FF0002320294AFB7B9B08DBB2023352F82330C3
:101000007A681268927814462349FA7B9208D2B221
:10101000104643EA0402831C41F82320FB7B042B87
:101020000DD9FB7B092B0AD81C4B5B791846FFF7BF
:1010300091FA1A4B5B791846FFF7ACFA16E0FB7B86
:10104000092B0DD9FB7B0F2B0AD8144BDB791846E3
:10105000FFF780FA114B9B791846FFF79BFA05E0E2
:10106000FB7B0E4AD35C1846FFF774FAFB7B013317
:10107000FB73FB7B0F2B9AD97B681B681A887B68F4
:101080005B6819461046FFF723FF00BF1437BD46C3
:1010900090BD00BF003C014000380140000000202E
:1010A00080B584B000AF0346FB80164B5A69FB88BD
:1010B0001340002B21D0134AFB8853610023FB739C
:1010C00016E0FA88FB7B22FA03F303F00103002BFE
:1010D0000BD0FB7B0C4A52F82330002B0CD0FB7B4F
:1010E000094A52F82330984706E0FB7B0133FB7333
:1010F000FB7B0F2BE5D900E000BF00BF1037BD46DA
:1011000080BD00BF003C01404C00002080B586B08F
:1011100000AF78607B681B68374A934204D07B68D5
:101120001B68364A934203D1FFF716FE786102E04E
:10113000FFF7F6FD78617B685B681B7A012B2BD18A
:101140007A6913469B0013449A001A447B685B68D3
:101150001B685B00B2FBF3F33B613B69284AA2FBCF
:1011600003235B09FB60FB68642202FB03F33A691B
:10117000D31ABB60BB68DB003233214AA2FB0323D6
:101180005B09BB60FB681901BB6803F007027B6861
:101190001B680A439A602AE07A6913469B0013444D
:1011A0009A001A447B685B681B689B00B2FBF3F3F0
:1011B0003B613B69124AA2FB03235B09FB60FB68AE
:1011C000642202FB03F33A69D31ABB60BB681B01BC
:1011D00032330B4AA2FB03235B09BB60FB68190196
:1011E000BB6803F00F027B681B680A439A6000BF6C
:1011F0001837BD4680BD00BF0010014000140140FB
:101200001F85EB5180B584B000AF78607B685B6868
:10121000FB607B681B68DA687B681B6822F40052FD
:10122000DA60FB681B79002B08D17B681B68DA68E1
:101230007B681B6822F48052DA6007E07B681B68D9
:10124000DA687B681B6842F48052DA60FB685B797D
:10125000002B08D17B681B68DA687B681B6822F466
:101260008062DA6024E0FB685B79022B10D17B6836
:101270001B68DA687B681B6842F48062DA607B680E
:101280001B68DA687B681B6822F40072DA600FE082
:101290007B681B68DA687B681B6842F48062DA60EE
:1012A0007B681B68DA687B681B6842F40072DA604E
:1012B0007B681B681A697B681B6822F440521A61BC
:1012C0007B681B681969FB689B791A037B681B683C
:1012D0000A431A61FB681B7A012B08D17B681B68E3
:1012E000DA687B681B6842F40042DA6007E07B68DA
:1012F0001B68DA687B681B6822F40042DA60FB68CE
:10130000DB79002B10D17B681B68DA687B681B686F
:1013100022F00402DA607B681B68DA687B681B686D
:1013200042F00802DA6024E0FB68DB79012B10D17F
:101330007B681B68DA687B681B6822F00802DA6049
:101340007B681B68DA687B681B6842F00402DA601D
:101350000FE07B681B68DA687B681B6822F00C0270
:10136000DA607B681B68DA687B681B6842F00C02F5
:10137000DA607868FFF7CAFE7B681B68DA687B680A
:101380001B6842F40052DA6000BF1037BD4680BDD2
:1013900080B485B000AFF860B9607A60FB681B7EEE
:1013A000DBB2002B11D1FB6801221A76FB68BA6808
:1013B0009A60FB687A681A61FB681B68DA68FB68E8
:1013C0001B6842F08002DA6000E000BF1437BD46BF
:1013D00080BC704780B485B000AFF860B9607A60B7
:1013E000FB685B7EDBB2002B11D1FB6801225A76D1
:1013F000FB68BA68DA60FB687A685A61FB681B6848
:10140000DA68FB681B6842F02002DA6000E000BF87
:101410001437BD4680BC704780B582B000AF78609D
:101420007B681B681B6803F08003002B2ED07B6851
:101430001B68DB6803F08003002B27D07B681B7ED2
:10144000DBB2012B7ED17B689B68591C7A68916066
:101450001A787B681B685A607B681B695A1E7B6818
:101460001A617B681B69002B6CD17B681B68DA688A
:101470007B681B6822F08002DA607B681B68DA6890
:101480007B681B6842F04002DA605BE07B681B68A7
:101490001B6803F04003002B19D07B681B68DB68D6
:1014A00003F04003002B12D07B681B68DA687B686E
:1014B0001B6822F04002DA607B6800221A767B68A3
:1014C000DB69002B3FD07B68DB6998473BE07B689A
:1014D0001B681B6803F02003002B34D07B681B685B
:1014E000DB6803F02003002B2DD07B685B7EDBB232
:1014F000012B28D17B681B685A687B68DB68D2B2F5
:101500001A707B68DB685A1C7B68DA607B685B69F1
:101510005A1E7B685A617B685B69002B13D17B681C
:101520001B68DA687B681B6822F02002DA607B683F
:1015300000225A767B681B6A002B04D07B681B6AEA
:10154000984700E000BF00BF0837BD4680BD0000DF
:1015500048656C6C6F20576F726C640D0A00000058
:101560000100010001000100010001000100010073
:10157000020004000800100040008000000100028A
:08158000010101010204081041
:04158800F8B500BFF3
:04158C00F8B500BFEF
:08159000060708090A172800EC
:04000005080006AD3C
:00000001FF
