:020000040800F2
:1000000000000220150A0008850A0008850A000879
:10001000850A0008850A0008850A0008000000001B
:10002000000000000000000000000000850A000839
:10003000850A000800000000850A0008090A000877
:10004000850A0008850A0008850A0008850A000854
:10005000850A0008850A0008C5060008D3060008BE
:10006000E1060008EF060008FD060008850A000802
:10007000850A0008850A0008850A0008850A000824
:10008000850A0008850A0008850A00083D0800085E
:10009000490800085D08000871080008B107000859
:1000A000850A0008850A0008850A0008850A0008F4
:1000B000850A0008850A0008850A0008850A0008E4
:1000C000850A0008850A0008850A0008850A0008D4
:1000D000850A00084D06000861060008750600083C
:1000E0000D070008850A0008850A0008850A00082F
:1000F000850A0008850A0008850A0008850A0008A4
:10010000850A0008850A0008850A0008850A000893
:10011000890600089D060008850A0008850A00086F
:10012000850A0008850A0008850A0008850A000873
:10013000850A0008850A0008850A00087D0800086D
:10014000890800089D080008B1080008850A000811
:10015000850A0008850A0008850A0008B10600081B
:10016000850A0008850A0008850A0008850A000833
:10017000850A0008850A0008850A000800000000BA
:08018000850A0008850A000849
:100190000348044B834202D0034B03B11847704716
:1001A0005800002058000020000000000548064BC1
:1001B0001B1AD90F01EBA301491002D0034B03B165
:1001C0001847704758000020580000200000000029
:1001D00010B5064C237843B9FFF7DAFF044B13B18F
:1001E0000448AFF300800123237010BD58000020A5
:1001F00000000000CC2D000808B5054B1BB10549D7
:100200000548AFF30080BDE80840FFF7CFBF00BF4F
:10021000000000005C000020CC2D000880B500AF7D
:100220004021024800F02FFD00BF80BD00000240C9
:10023000F0B59BB008AF3C4BB3F816383A4A0133DF
:100240001B0113440B331B789C46374BB3F816380D
:10025000354A1B0113441C331B781946324BB3F843
:100260001638314A1B0113441D331B781C462E4B94
:10027000B3F816382C4A1B0113441E331B781D4655
:10028000294BB3F81638284A1B0113441F331B7837
:100290001E46254BB3F81638234A1B01134420335E
:1002A0001B78FB60204BB3F816381F4A1B01134420
:1002B00021331B78BB601C4BB3F816381A4A1B015C
:1002C000134422331B787B60174BB3F81638164A59
:1002D00001331B01134404331B6807F11400079317
:1002E0007A680692BA680592FB68049303960295B1
:1002F0000194009163460D4A322102F013F807F190
:100300001403184602F042F8024607F11403194696
:10031000074801F0F1F94021064800F0B4FC00BFA5
:100320004C37BD46F0BD00BFA8000020142D0008CA
:10033000840000200000024080B500AF00F00AFEFB
:100340001B4B1B6B1A4A43F001031363184B1B6BC7
:10035000174A43F002031363154B1B6B144A43F017
:1003600010031363124B5B6C114A43F480435364D4
:100370000F4B1B6C0E4A43F00073136400F020F81F
:1003800000F0C8F800F0F2F80A4801F096FD0A48BB
:1003900000F0D6FA074801F024FE8021074800F05B
:1003A00072FC4FF4FA7000F001FB00BFF5E700BFEC
:1003B00000380240A80000204090020000000240E7
:1003C00080B584B000AFC0233B810123FB720123C1
:1003D000BB7200233B730023BB7300237B73474A2C
:1003E00007F108035360454B454A1A60434800F043
:1003F00028FC10233B810023FB720123BB720023E6
:100400003B730123BB7300237B733C4A07F1080352
:1004100053603A4B3B4A1A60384800F012FC1023F4
:10042000BB800423BB710123FB71374A3B1D136062
:10043000354B364A5A60344800F024FF4FF40073BD
:100440003B810223FB7200233B730023BB73032316
:100450007B730723FB73294A07F108035360274B7B
:10046000274A1A60254800F0ECFB4FF480633B817B
:100470000223FB7200233B730023BB7303237B73B4
:100480000723FB731D4A07F1080353601B4B1C4AEB
:100490001A601A4800F0D5FB4FF400733B81022329
:1004A000FB7200233B730023BB7303237B7309237D
:1004B000FB73124A07F108035360104B144A1A6089
:1004C0000E4800F0BEFB4FF480733B810223FB72A9
:1004D00000233B730023BB7303237B730923FB734C
:1004E000064A07F108035360044B094A1A6003489F
:1004F00000F0A7FB00BF1037BD4680BD7400002090
:1005000000000240001002407C0000201D02000894
:100510000004024080B584B000AF4FF4E1337B604B
:100520000223FB7200237B720023BB7200233B7209
:1005300000233B730A4B0B4A1A60094A3B1D536068
:10054000094B5B6C084A43F010035364044801F004
:100550000DF8252000F0B2F900BF1037BD4680BD70
:10056000840000200010014000380240B0B58AB07D
:1005700000AF002387F82230012387F823300023BF
:1005800087F82530012387F82430002387F82630A8
:100590000623BB820123BB750B23FB7502233B762D
:1005A00007F11C0307F1140292E8030018600433FA
:1005B0001980234B234A1A60214B043307F11C0294
:1005C00007CA83E807001E4B0022C3F834281C4BDF
:1005D000002283F830281A4B0022A3F81828184B61
:1005E0000022A3F81428164B0022A3F8162814485A
:1005F00001F04AF900233B7000233B7401237B7414
:1006000000237B600023BB600023BB740123FB74C9
:100610000B4B03F61C043D460FCD0FC42B68236023
:10062000074B094AC3F838283B461946044801F0ED
:1006300005FB142000F042F900BF2837BD46B0BDCD
:10064000A8000020006400403102000880B500AF1F
:10065000024801F07EF800BF80BD00BF840000208A
:1006600080B500AF024801F074F800BF80BD00BF44
:100670008400002080B500AF024801F06AF800BF96
:1006800080BD00BF8400002080B500AF024801F0AB
:1006900060F800BF80BD00BF8400002080B500AFBF
:1006A000024801F056F800BF80BD00BF8400002062
:1006B00080B500AF024801F04CF800BF80BD00BF1C
:1006C0008400002080B500AF012000F09DFE00BF37
:1006D00080BD80B500AF022000F096FE00BF80BD57
:1006E00080B500AF042000F08FFE00BF80BD80B554
:1006F00000AF082000F088FE00BF80BD80B500AFCD
:10070000102000F081FE00BF80BD000080B582B0E7
:1007100000AF0A23FB7100BFFB790F2B3ED8234BA0
:100720005A69FB79012101FA03F31340002B37D0FA
:10073000FB790F2B2BD00F2B2EDC0E2B22D00E2B68
:100740002ADC0D2B19D00D2B26DC0C2B10D00C2BFA
:1007500022DC0A2B02D00B2B05D01DE04FF4806069
:1007600000F052FE19E04FF4006000F04DFE14E07E
:100770004FF4805000F048FE0FE04FF4005000F0BE
:1007800043FE0AE04FF4804000F03EFE05E04FF4E7
:10079000004000F039FE00E000BF01E000BF00E0D3
:1007A00000BF00BF0837BD4680BD00BF003C014010
:1007B00080B582B000AF0523FB7100BFFB79092B28
:1007C00032D81D4B5A69FB79012101FA03F313401A
:1007D000002B2BD0FB79092B1FD0092B22DC082BF7
:1007E00016D0082B1EDC072B0ED0072B1ADC052B8E
:1007F00002D0062B04D015E0202000F005FE12E008
:10080000402000F001FE0EE0802000F0FDFD0AE037
:100810004FF4807000F0F8FD05E04FF4007000F038
:10082000F3FD00E000BF01E000BF00E000BF00BF3B
:100830000837BD4680BD00BF003C014080B400AF1A
:1008400000BFBD4680BC704780B500AF00210248A4
:1008500001F024FD00BF80BDA800002080B500AFDE
:100860000121024801F01AFD00BF80BDA800002050
:1008700080B400AF00BFBD4680BC704780B400AFFD
:1008800000BFBD4680BC704780B500AF0021024864
:1008900001F004FD00BF80BDE808002080B500AF76
:1008A0000121024801F0FAFC00BF80BDE8080020E9
:1008B00080B400AF00BFBD4680BC704780B483B039
:1008C00000AF0346FB710C4AFB795B09DBB252F8BF
:1008D0002320FB7903F01F03012101FA03F30648EB
:1008E000F9794909C9B2134340F8213000BF0C37E8
:1008F000BD4680BC704700BF00E100E080B483B01B
:1009000000AF0346FB710D4AFB795B09DBB2603334
:1009100052F82320FB7903F01F03012101FA03F3AE
:100920000648F9794909C9B21A4301F1600340F850
:10093000232000BF0C37BD4680BC704700E100E0BB
:1009400080B483B000AF78607B68002B26D07B68D2
:10095000B3F1807F22D2144B1B68134A23F00103AA
:100960001360114B00229A600F4B00221A600E4A4E
:100970007B68013B53600C4B1B680B4A43F004033C
:100980001360094B1B68084A43F002031360064BCF
:100990001B68054A43F00103136000E000BF0C37F9
:1009A000BD4680BC704700BF10E000E080B584B059
:1009B00000AF786000F010F8F86000BF00F00CF8AD
:1009C0000246FB68D31A7A689A42F7D800BF00BF84
:1009D0001037BD4680BD000080B400AF024B1B68DD
:1009E0001846BD4680BC70472811002080B400AF77
:1009F000044B1B680133034A136000BFBD4680BC33
:100A0000704700BF2811002080B500AFFFF7EEFF50
:100A100000BF80BD80B584B000AF154A154BD31A16
:100A2000FB60144BBB60144B7B6007E07A68531C7F
:100A30007B60BB68591CB96012781A70FB685A1E3B
:100A4000FA60002BF2D10D4A0D4BD31A3B600C4BD0
:100A5000BB6004E0BB685A1CBA6000221A703B6895
:100A60005A1E3A60002BF5D1FFF766FC00BFFDE788
:100A70005800002000000020DC2D0008BC120020DF
:100A80005800002080B400AF00BFFDE780B485B0FF
:100A900000AF78600B46FB707B685B68DB78FB73AC
:100AA0007B681B681968FB785B00032202FA03F37A
:100AB000DA437B681B680A401A607B681B681A6807
:100AC000F97BFB785B0001FA03F319467B681B682E
:100AD0000A431A607B685B681B79BB737B681B6881
:100AE0005968FB78012202FA03F3DA437B681B683A
:100AF0000A405A607B681B685A68B97BFB7801FA28
:100B000003F319467B681B680A435A607B685B687D
:100B10005B797B737B681B689968FB785B000322B9
:100B200002FA03F3DA437B681B680A409A607B6829
:100B30001B689A68797BFB785B0001FA03F319461E
:100B40007B681B680A439A607B685B689B793B7390
:100B50007B681B68D968FB785B00032202FA03F309
:100B6000DA437B681B680A40DA607B681B68DA68D6
:100B7000397BFB785B0001FA03F319467B681B683D
:100B80000A43DA607B685B68DB79FB72FB7B022BD4
:100B90003AD1FB78072B1AD87B681B68196AFB7857
:100BA0009B000F2202FA03F3DA437B681B680A40BA
:100BB0001A627B681B681A6AF97AFB789B0001FA53
:100BC00003F319467B681B680A431A621CE0FB7832
:100BD000083BBB727B681B68596ABB7A9B000F227B
:100BE00002FA03F3DA437B681B680A405A627B68A7
:100BF0001B685A6AF97ABB7A9B0001FA03F319461B
:100C00007B681B680A435A627B685B689B787B72CF
:100C10007B7A012B07D1FA787B681B68012101FAE6
:100C200002F29A6108E0FB7803F110027B681B680E
:100C3000012101FA02F29A6100BF1437BD4680BC5F
:100C4000704780B584B000AF78600023FB7312E07A
:100C50007B685B681B881A46FB7B42FA03F303F050
:100C60000103002B04D0FB7B19467868FFF70EFFC9
:100C7000FB7B0133FB73FB7B0F2BE9D900BF00BF6C
:100C80001037BD4680BD80B483B000AF78600B469E
:100C90007B807B685A697B885A407B685A6100BFB9
:100CA0000C37BD4680BC704780B400AF084B1B6852
:100CB000074A43F00103136000BF054B1B6803F0B4
:100CC0000203002BF9D000BF00BFBD4680BC7047B7
:100CD0000038024080B400AF084B1B68074A43F459
:100CE0008033136000BF054B1B6803F40033002BF7
:100CF000F9D000BF00BFBD4680BC7047003802403D
:100D000080B400AF084B1B68074A43F08073136040
:100D100000BF054B1B6803F00073002BF9D000BF28
:100D200000BFBD4680BC70470038024080B400AFB1
:100D3000084B1B68074A23F08073136000BF054B04
:100D40001B6803F00073002BF9D100BF00BFBD4644
:100D500080BC70470038024080B483B000AF786038
:100D6000174B9B68164A23F0F0039360144B9A6864
:100D70007B689B681B01124913438B60104B9B6877
:100D80000F4A23F4E05393600D4B9A687B68DB684D
:100D90009B020B4913438B60094B9B68084A23F461
:100DA00060439360064B9A687B681B695B03044948
:100DB00013438B6000BF0C37BD4680BC704700BF3B
:100DC0000038024080B582B000AF78607B685B6815
:100DD000002B18D1FFF768FF7868FFF7BDFF7B682D
:100DE0001B88DBB2184600F087F9594B9B68584ABC
:100DF00023F00303936000BF554B9B6803F00C0383
:100E0000002BF9D1A0E07B685B68012B1ED1FFF7B6
:100E100061FF7868FFF7A0FF7B681B88DBB218468C
:100E200000F06AF94A4B9B68494A23F00303936038
:100E3000474B9B68464A43F00103936000BF444B15
:100E40009B6803F00C03042BF9D17DE07B685B68A1
:100E5000022B79D1FFF76AFF7868FFF77DFF7B6887
:100E60001B88DBB2184600F047F9394B5B68384AFB
:100E700023F03F035360364B5A687B685B69344903
:100E800013434B60324B5B68314A23F4FF4323F03A
:100E9000400353602E4B5A687B689B699B012C4929
:100EA00013434B602A4B5B68294A23F44033536059
:100EB000274B5A687B68DB691B04254913434B6049
:100EC000234B5B68224A23F070635360204B5A68BF
:100ED0007B681B6A1B061E4913434B607B6893F8B3
:100EE0002430002B08D11A4B5B68194A23F4800385
:100EF0005360FFF7D9FE12E07B6893F82430012B92
:100F00000DD1134B5B68124A23F480035360104BDE
:100F10005B680F4A43F480035360FFF7DBFEFFF783
:100F2000EFFE0B4B9B680A4A23F003039360084BC8
:100F30009B68074A43F00203936000BF044B9B6821
:100F400003F00C03082BF9D100BF0837BD4680BD64
:100F50000038024080B58AB000AF02237B60A8232E
:100F60003B80012387F8243008237B614FF4A8736A
:100F7000BB610023FB6107233B620023BB600523A9
:100F8000FB6004233B613B461846FFF71BFF00BF95
:100F90002837BD4680BD000080B489B000AF294B22
:100FA0009B689B0803F003037B617B69022B0FD0D6
:100FB0007B69022B3DD87B69002B03D07B69012B19
:100FC00003D036E0204BFB6136E0204BFB6133E081
:100FD0001C4B5B6803F480033B611A4B5B6803F0B6
:100FE0003F03FB60174B5B689B09C3F30803BB60BF
:100FF000144B5B681B0C03F0030301335B007B6045
:101000003B69002B05D0114AFB68B2FBF3F3BB61CF
:1010100004E00D4AFB68B2FBF3F3BB61BB69BA683D
:1010200002FB03F33B603A687B68B2FBF3F3FB61BE
:1010300002E0054BFB6100BFFB6918462437BD4643
:1010400080BC7047003802400024F40000127A008F
:1010500080B582B000AF0A4B9B681B0903F00F03F9
:101060007B60FFF799FF024606497B6831F8133031
:10107000B2FBF3F33B603B6818460837BD4680BDC2
:1010800000380240582D000880B582B000AF0A4BEE
:101090009B689B0A03F007037B60FFF7D9FF0246BA
:1010A00006497B680B441B78B2FBF3F33B603B685B
:1010B00018460837BD4680BD00380240782D00082C
:1010C00080B582B000AF0A4B9B685B0B03F007034F
:1010D0007B60FFF7BDFF024606497B680B441B7827
:1010E000B2FBF3F33B603B6818460837BD4680BD52
:1010F00000380240782D000880B483B000AF03466A
:10110000FB71FB791E2B0AD84A4B1B68494A23F016
:1011100007031360474B474A1B68136084E0FB7961
:101120001E2B0FD9FB793C2B0CD8424B1B68414A34
:1011300023F0070313603F4B1B683E4A43F0010353
:10114000136071E0FB793C2B0FD9FB795A2B0CD83B
:10115000384B1B68374A23F007031360354B1B6875
:10116000344A43F0020313605EE0FB795A2B0FD937
:10117000FB79782B0CD82F4B1B682E4A23F00703E2
:1011800013602C4B1B682B4A43F0030313604BE0A6
:10119000FB79782B0FD9FB79962B0CD8254B1B6844
:1011A000244A23F007031360224B1B68214A43F0B3
:1011B0000403136038E0FB79962B0FD9FB79A82B39
:1011C0000CD81C4B1B681B4A23F007031360194BF8
:1011D0001B68184A43F00503136025E0FB79A82B30
:1011E0000FD9FB79B42B0CD8124B1B68114A23F092
:1011F000070313600F4B1B680E4A43F0060313608E
:1012000012E0FB79B42B0FD9FB79D82B0CD8094B02
:101210001B68084A23F007031360064B1B68054A46
:1012200043F007031360FFE700BF0C37BD4680BCE7
:10123000704700BF003C024080B485B000AF034659
:101240003960FB800023FB7310E0FA88FB7B22FAF5
:1012500003F303F00103002B05D0FB7B08493A6838
:1012600041F8232006E0FB7B0133FB73FB7B0F2B54
:10127000EBD900BF00BF1437BD4680BC704700BF2C
:101280002C11002090B585B000AF78605B4B1B68D7
:101290007A68126812881146584A0B431360574BFC
:1012A0005B687A68126812881146544A0B4353608F
:1012B0007B681B68DB78002B09D1504B9B687A68F0
:1012C0001268128811464D4A0B43936020E07B68F8
:1012D0001B68DB78012B09D1484BDB687A68126800
:1012E00012881146454A0B43D36011E0434B9B687B
:1012F0007A68126812881146404A0B4393603F4B4C
:10130000DB687A681268128811463C4A0B43D36046
:101310000023FB7361E07B681B681B881A46FB7B1C
:1013200022FA03F303F00103002B53D0344AFB7B72
:101330009B08DBB2023352F82320FB7B03F003034C
:101340009B000F2101FA03F3DB432D48F97B890849
:10135000C9B21A408B1C40F82320294AFB7B9B080A
:10136000DBB2023352F823307A681268927814465E
:101370002349FA7B9208D2B2104643EA0402831C46
:1013800041F82320FB7B042B0DD9FB7B092B0AD8CA
:101390001C4B5B791846FFF791FA1A4B5B7918469C
:1013A000FFF7ACFA16E0FB7B092B0DD9FB7B0F2B6B
:1013B0000AD8144BDB791846FFF780FA114B9B795A
:1013C0001846FFF79BFA05E0FB7B0E4AD35C1846F4
:1013D000FFF774FAFB7B0133FB73FB7B0F2B9AD96E
:1013E0007B681B681A887B685B6819461046FFF7A4
:1013F00023FF00BF1437BD4690BD00BF003C014035
:10140000003801400000002080B584B000AF0346E2
:10141000FB80164B5A69FB881340002B21D0134ADE
:10142000FB8853610023FB7316E0FA88FB7B22FAEA
:1014300003F303F00103002B0BD0FB7B0C4A52F8A3
:101440002330002B0CD0FB7B094A52F823309847FD
:1014500006E0FB7B0133FB73FB7B0F2BE5D900E040
:1014600000BF00BF1037BD4680BD00BF003C01403B
:101470002C11002080B586B000AF78607B681B68B7
:10148000374A934204D07B681B68364A934203D1A3
:10149000FFF716FE786102E0FFF7F6FD78617B68E2
:1014A0005B681B7A012B2BD17A6913469B0013448E
:1014B0009A001A447B685B681B685B00B2FBF3F31D
:1014C0003B613B69284AA2FB03235B09FB60FB6885
:1014D000642202FB03F33A69D31ABB60BB68DB00EA
:1014E0003233214AA2FB03235B09BB60FB6819016D
:1014F000BB6803F007027B681B680A439A602AE016
:101500007A6913469B0013449A001A447B685B680F
:101510001B689B00B2FBF3F33B613B69124AA2FBE1
:1015200003235B09FB60FB68642202FB03F33A6957
:10153000D31ABB60BB681B0132330B4AA2FB0323E7
:101540005B09BB60FB681901BB6803F00F027B6895
:101550001B680A439A6000BF1837BD4680BD00BFB4
:1015600000100140001401401F85EB5180B584B08C
:1015700000AF78607B685B68FB607B681B68DA683B
:101580007B681B6822F40052DA60FB681B79002B31
:1015900008D17B681B68DA687B681B6822F480527C
:1015A000DA6007E07B681B68DA687B681B6842F4D6
:1015B0008052DA60FB685B79002B08D17B681B687E
:1015C000DA687B681B6822F48062DA6024E0FB68DA
:1015D0005B79022B10D17B681B68DA687B681B681B
:1015E00042F48062DA607B681B68DA687B681B689B
:1015F00022F40072DA600FE07B681B68DA687B68AF
:101600001B6842F48062DA607B681B68DA687B687A
:101610001B6842F40072DA607B681B681A697B6899
:101620001B6822F440521A617B681B681969FB68C9
:101630009B791A037B681B680A431A61FB681B7A53
:10164000012B08D17B681B68DA687B681B6842F451
:101650000042DA6007E07B681B68DA687B681B6819
:1016600022F40042DA60FB68DB79002B10D17B6842
:101670001B68DA687B681B6822F00402DA607B680A
:101680001B68DA687B681B6842F00802DA6024E0B5
:10169000FB68DB79012B10D17B681B68DA687B68FB
:1016A0001B6822F00802DA607B681B68DA687B68D6
:1016B0001B6842F00402DA600FE07B681B68DA689E
:1016C0007B681B6822F00C02DA607B681B68DA68B2
:1016D0007B681B6842F00C02DA607868FFF7CAFE8C
:1016E0007B681B68DA687B681B6842F40052DA602A
:1016F00000BF1037BD4680BD80B487B000AFF86032
:10170000B9607A6000237B6119E000BFFB681B6849
:101710001B6803F08003002BF8D0BA687B69134480
:101720001A78FB681B685A6000BFFB681B681B685F
:1017300003F04003002BF8D07B6901337B617A69A9
:101740007B689A42E1D300BF00BF1C37BD4680BC16
:10175000704780B582B000AF78607B681B681B68FB
:1017600003F08003002B2ED07B681B68DB6803F03E
:101770008003002B27D07B681B7EDBB2012B7ED140
:101780007B689B68591C7A6891601A787B681B6833
:101790005A607B681B695A1E7B681A617B681B69EB
:1017A000002B6CD17B681B68DA687B681B6822F0B1
:1017B0008002DA607B681B68DA687B681B6842F02D
:1017C0004002DA605BE07B681B681B6803F0400343
:1017D000002B19D07B681B68DB6803F04003002BEB
:1017E00012D07B681B68DA687B681B6822F04002B5
:1017F000DA607B6800221A767B68DB69002B3FD0B9
:101800007B68DB6998473BE07B681B681B6803F0DB
:101810002003002B34D07B681B68DB6803F02003B7
:10182000002B2DD07B685B7EDBB2012B28D17B683F
:101830001B685A687B68DB68D2B21A707B68DB6809
:101840005A1C7B68DA607B685B695A1E7B685A6148
:101850007B685B69002B13D17B681B68DA687B6847
:101860001B6822F02002DA607B6800225A767B68CF
:101870001B6A002B04D07B681B6A984700E000BFFE
:1018800000BF0837BD4680BD80B582B000AF78602C
:10189000FFF7A2F803469A4A13607B68002B01D138
:1018A0000123C4E17B680022C3F834287B681B68ED
:1018B000002B09D17B68D3F8343843F001027B68F0
:1018C000C3F834280123B2E17B6893F83038022B47
:1018D00001D10223ABE17B689B7A032B09D97B689A
:1018E000D3F8343843F001027B68C3F8342801236D
:1018F0009DE17B689B88002B04D07B689B88B3F5B7
:10190000806F09D97B68D3F8343843F001027B68D3
:10191000C3F8342801238AE17B68DB79002B03D0EC
:101920007B68DB79102B09D97B68D3F8343843F016
:1019300001027B68C3F83428012378E17B681B7AB5
:10194000002B03D07B681B7A082B09D97B68D3F85E
:10195000343843F001027B68C3F83428012366E180
:101960007B689B79002B03D07B689B79042B09D97A
:101970007B68D3F8343843F001027B68C3F834281D
:10198000012354E17B689A797B681B7A9A4209D9D2
:101990007B68D3F8343843F001027B68C3F83428FD
:1019A000012344E17B68022283F830287B681B68AE
:1019B0005B6803F00203002B2BD07B681B681A685E
:1019C0007B681B6822F002021A60FFF705F80346E5
:1019D0004B4A136016E0FEF7FFFF0246484B1B68B8
:1019E000D31AB3F57A7F0DD97B68D3F8343843F036
:1019F00002027B68C3F834287B68032283F830280E
:101A0000032314E17B681B685B6803F00203002B6F
:101A1000E1D17B681B681A687B681B6842F0010291
:101A20001A60FEF7D9FF0346354A136016E0FEF749
:101A3000D3FF0246324B1B68D31AB3F57A7F0DD918
:101A40007B68D3F8343843F002027B68C3F834284B
:101A50007B68032283F830280323E8E07B681B6857
:101A60005B6803F00103002BE1D07B681B681A68F8
:101A70007B681B6822F07C021A607B681B68DA694D
:101A80007B681B6822F04042DA617B68DB7A002BBE
:101A900007D07B681B681A687B681B6842F04002AD
:101AA0001A607B681B7B002B07D07B681B681A6859
:101AB0007B681B6842F020021A607B685B7B002B0E
:101AC00008D07B681B681A687B681B6822F01002CC
:101AD0001A6007E07B681B681A687B681B6842F025
:101AE00010021A607B689B7B002B0BD07B681B6805
:101AF0001A687B681B6842F008021A600AE000BF9F
:101B00006C1100207B681B681A687B681B6822F0D8
:101B100008021A607B68DB7B002B08D07B681B689F
:101B20001A687B681B6842F004021A6007E07B6851
:101B30001B681A687B681B6822F004021A607B68C5
:101B40009B7A032B1BD0032B22DC022B0ED0022B03
:101B50001EDC002B2AD0012B1AD17B681B68DA69A6
:101B60007B681B6842F08042DA6120E07B681B687A
:101B7000DA697B681B6842F00042DA6117E07B6833
:101B80001B68DA697B681B6842F04042DA610EE04C
:101B90007B68042283F830287B68D3F8343843F01C
:101BA00001027B68C3F83428012340E000BF7B6852
:101BB0001B68D9697B681A681F4B0B40D3617B682F
:101BC0001B68D9697B689B88013BC3F309027B686A
:101BD0001B680A43DA617B681B68D9697B68DB791B
:101BE000013B1B0403F470227B681B680A43DA6123
:101BF0007B681B68D9697B681B7A013B1B0503F472
:101C0000E0027B681B680A43DA617B681B68D9695C
:101C10007B689B79013B1B0603F040727B681B6865
:101C20000A43DA617B68012283F8302800231846D2
:101C30000837BD4680BD00BF00FC80FC80B483B087
:101C400000AF786039607B68002B02D03B68002BC6
:101C500001D101232CE17B680022C3F834287B6882
:101C60001B68002B09D17B68D3F8343843F001029C
:101C70007B68C3F8342801231AE13B681B781B2BCF
:101C800009D97B68D3F8343843F001027B68C3F884
:101C9000342801230CE13B681B7C012B09D97B68AC
:101CA000D3F8343843F001027B68C3F834280123A9
:101CB000FEE03B685B7C012B09D97B68D3F83438A4
:101CC00043F001027B68C3F834280123F0E03B684D
:101CD0009B7C012B09D97B68D3F8343843F001028F
:101CE0007B68C3F834280123E2E07B681B68D3F8E3
:101CF00000227B681B6842F00102C3F800227B6867
:101D00001B68D3F81C123B681B781A4601239340CA
:101D1000DA437B681B680A40C3F81C223B685B7C83
:101D2000012B0FD17B681B68D3F80C123B681B7822
:101D30001A46012303FA02F27B681B680A43C3F8C0
:101D40000C220EE07B681B68D3F80C123B681B78F2
:101D50001A4601239340DA437B681B680A40C3F8A4
:101D60000C223B681B7C012B0FD17B681B68D3F8CE
:101D700004123B681B781A46012303FA02F27B68BF
:101D80001B680A43C3F804220EE07B681B68D3F883
:101D900004123B681B781A4601239340DA437B68A0
:101DA0001B680A40C3F804223B689B7C012B0FD1BF
:101DB0007B681B68D3F814123B681B781A46012312
:101DC00003FA02F27B681B680A43C3F814220EE090
:101DD0007B681B68D3F814123B681B781A460123F2
:101DE0009340DA437B681B680A40C3F814223B68BF
:101DF0005B7C012B17D17B681B683A681278104610
:101E00003A68516800F1480243F832107B6819685B
:101E10003B681B7818463B689A6800F14803DB0072
:101E20000B445A6016E07B681B683A6812781046CB
:101E30003A68516800F1480243F832107B6819682B
:101E40003B681B7818463B689A6800F14803DB0042
:101E50000B445A603B68DB7C012B0FD17B681B680D
:101E6000D3F81C123B681B781A46012303FA02F2CE
:101E70007B681B680A43C3F81C220EE07B681B6862
:101E8000D3F81C123B681B781A4601239340DA43AF
:101E90007B681B680A40C3F81C227B681B68D3F868
:101EA00000227B681B6822F00102C3F80022002395
:101EB00018460C37BD4680BC704780B584B000AF73
:101EC0007860FEF789FDF8607B68002B01D1012363
:101ED00083E07B680022C3F834287B681B68002BF2
:101EE00009D17B68D3F8343843F001027B68C3F82A
:101EF0003428012371E07B6893F83038012B0ED031
:101F00007B6893F83038052B09D07B68D3F83438D8
:101F100043F004027B68C3F8342801235DE07B684A
:101F20001B685B6803F00203002B28D07B681B68EA
:101F30001A687B681B6822F002021A60FEF74CFDEB
:101F4000F86015E0FEF748FD0246FB68D31AB3F5CA
:101F50007A7F0DD97B68D3F8343843F002027B686E
:101F6000C3F834287B68042283F83028032334E044
:101F70007B681B685B6803F00203002BE2D17B687F
:101F80001B681A687B681B6822F001021A60FEF762
:101F900023FDF86015E0FEF71FFD0246FB68D31A2B
:101FA000B3F57A7F0DD97B68D3F8343843F0020259
:101FB0007B68C3F834287B68042283F83028032325
:101FC0000BE07B681B685B6803F00103002BE2D128
:101FD0007B68072283F83028002318461037BD4657
:101FE00080BD80B483B000AF78607B68002B1DD0CB
:101FF0007B681B68002B08D17B68D3F8343843F02A
:1020000001027B68C3F8342811E07B681B685A69B9
:102010007B681B6842F002025A617B681B685A6940
:102020007B681B6842F010025A6100E000BF0C3769
:10203000BD4680BC704784B090B484B000AF786077
:1020400007F11C0080E80E007B681433FB60FB681E
:10205000B3F804387F2B1FD8FB68B3F80038FA6850
:102060001B0113441C4607F11C030FCB84E80F002F
:10207000FB68B3F8003801339BB203F07F039AB2D8
:10208000FB68A3F80028FB68B3F8043801339AB260
:10209000FB68A3F8042800E000BF1037BD4690BCE1
:1020A00004B0704780B58CB002AF78607B681B6865
:1020B00003F5D8733B6207F10C0300221A605A60E3
:1020C0009A60DA603B6A1B685B08DBB203F00103CD
:1020D000DBB27B743B6A1B6803F00403002B08D05F
:1020E00001233B743B6A1B68DB08C3F31103FB60ED
:1020F00007E000233B743B6A1B685B0DC3F30A03D4
:10210000FB603B6A5B68DBB203F00F03FB77FB7F8E
:10211000BB74002387F8273024E097F82730032B7F
:102120000DD83B6A9A6897F82730DB00DA4097F8B9
:102130002730D2B228333B4403F8152C0DE03B6A1C
:10214000DA6897F82730043BDB00DA4097F827304D
:10215000D2B228333B4403F8152C97F827300133CB
:1021600087F8273097F82720FB7F9A42D5D3BB69A1
:10217000009307F10C030ECB7868FFF75CFF7B68D8
:102180001B68DA687B681B6842F02002DA6000BFD7
:102190002837BD4680BD000080B58CB002AF7860A6
:1021A0007B681B6803F5D8733B6207F10C030022C0
:1021B0001A605A609A60DA603B6A10331B685B08E9
:1021C000DBB203F00103DBB27B743B6A10331B68A4
:1021D00003F00403002B09D001233B743B6A103346
:1021E0001B681B0C03F01F03FB6008E000233B741B
:1021F0003B6A10331B68DA08274B1340FB603B6ACD
:1022000010335B68DBB203F00F03FB77FB7FBB741B
:10221000002387F8273026E097F82730032B0ED8C5
:102220003B6A10339A6897F82730DB00DA4097F85A
:102230002730D2B228333B4403F8152C0EE03B6A1A
:102240001033DA6897F82730043BDB00DA4097F860
:102250002730D2B228333B4403F8152C97F82730A7
:10226000013387F8273097F82720FB7F9A42D3D392
:10227000BB69009307F10C030ECB7868FFF7DBFE18
:102280007B681B681A697B681B6842F020021A6130
:1022900000BF2837BD4680BD0000FC1F80B582B05E
:1022A00000AF78600B46FB70FB78002B19D17B6880
:1022B0001B68DB6803F00303002B0BD07868FFF783
:1022C000F1FE7B68D3F83838002B03D07B68D3F855
:1022D000383898477B681B68DB687B681B68DB685D
:1022E0001BE0FB78012B18D17B681B681B6903F08E
:1022F0000303002B0BD07868FFF74EFF7B68D3F801
:102300003C38002B03D07B68D3F83C3898477B6877
:102310001B681B697B681B681B6900BF0837BD46CB
:1023200080BD00000CB430B5154B0C1E1D689DB06F
:1023300008DA8B232B604FF0FF301DB0BDE8304032
:1023400002B070474FF000031B9318BF0123E31A3C
:10235000049307930B4B029006900593209A21ABB0
:1023600002A92846019300F06FF9431CBCBF8B23E0
:102370002B60002CE1D0029B00221A70DDE700BF29
:10238000080000200802FFFF70477047034613F85B
:10239000012B002AFBD1181A0138704737B50029E4
:1023A00044D051F8043C0190002BA1F10404B8BFC3
:1023B000E41800F0DDF81E4A0198136833B9636031
:1023C000146003B0BDE8304000F0D8B8A34208D98B
:1023D000256861198B4201BF19685B684919216042
:1023E000EDE71A465B680BB1A342FAD9116855189C
:1023F000A5420BD1246821445418A3421160E0D1B6
:102400001C685B6853600C441460DAE702D90C2343
:102410000360D6E7256861198B4204BF19685B68C1
:10242000636004BF491921605460CAE703B030BD3E
:10243000B412002070B50F4C0E462168054611B944
:1024400000F0B4FB20603146284600F0AFFB431C8F
:1024500003D14FF0FF34204670BDC41C24F00304A8
:10246000A042F8D0211A284600F0A0FB0130F2D19A
:10247000EFE700BFB01200202DE9F843CD1C25F096
:10248000030508350C2D38BF0C25002D064601DB51
:10249000A94204D90C2333600020BDE8F883334FF0
:1024A00000F066F83B681C463CBB29463046FFF707
:1024B000C1FF431C044656D13C68A046B8F1000F4A
:1024C00040D1002C49D023684146304604EB030933
:1024D00000F06CFB814540D121686D1A29463046D9
:1024E000FFF7A8FF013038D023682B4423603B68F6
:1024F0005A685ABBC7F800800EE02268521B1ED4EF
:102500000B2A16D96119A342256018BF5960636868
:1025100008BF396062514B60304600F02FF804F17B
:102520000B00231D20F00700C21A1CBF1B1AA3506A
:10253000B3E76268A3420CBF3A605A60ECE72346F7
:102540006468B1E74446D8F80480B7E71A465B6888
:10255000A342FBD100235360DEE70C2333603046F7
:1025600000F00CF898E70560D6E700BFB412002031
:102570000148FFF709BF00BFAC1200200148FFF778
:1025800004BF00BFAC1200202DE9F0478E681F4643
:10259000BE4282460C469046334653D8B1F90C00F1
:1025A00010F4906F2BD065692368096905EB450528
:1025B000A3EB010905EBD5757B1C6D104B44AB42B9
:1025C0002A4684BF1D462A46430527D51146504654
:1025D000FFF752FF064658B321694A4600F048FB10
:1025E000A38923F4906343F08003A381266165618E
:1025F0004E44A5EB09052660A5603E463B461F46B6
:1026000020683A46414600F0B7FAA3689B1BA360D6
:1026100023683B4423600020BDE8F087504600F06B
:1026200035FB06460028E1D121695046FFF7B6FE8A
:102630000C23CAF80030A38943F04003A3814FF074
:10264000FF30E9E73E46DBE72DE9F0471F468B897F
:102650001B069CB006460D46144610D50B6973B98F
:102660004021FFF709FF2860286130B90C2333604F
:102670004FF0FF301CB0BDE8F08740236B610023B2
:10268000099320238DF8293003973023654F8DF867
:102690002A304FF0010823461A7899461AB1252AA4
:1026A00003F10103F8D1B9EB040A0BD053462246DB
:1026B00029463046FFF768FF013000F0A380099AF1
:1026C0005244099299F80030002B00F09B800022C0
:1026D0004FF0FF33CDE9053209F101090492079269
:1026E0008DF853201A924C46052214F8011B4D48D0
:1026F00000F06EFA049AD0B9D00644BF20238DF8BA
:102700005330110744BF2B238DF8533099F8003014
:102710002A2B13D007994B4600204FF00A0C1A7849
:10272000303A092A1C464AD9A8B1079113E0C01BC8
:1027300008FA00F010430490A146D4E7039B191D4A
:102740001B680391002BBBBF5B4242F00202079360
:102750000793B8BF049223782E2B0AD163782A2BD3
:1027600032D1039B1A1D1B68039243EAE3730234C0
:102770000593DFF8B49021780322484600F028FA48
:1027800038B1049BA0EB090040228240134301347E
:102790000493217825488DF82810062200F018FAB5
:1027A000002835D0224818BB039B073323F00703CA
:1027B00008330393099B0344013409936BE7013306
:1027C0000CFB01210120AAE700230593611C184698
:1027D0004FF00A0C0A78303A092A0C4603D9002B2C
:1027E000C7D00590C5E701310CFB00200123F1E7BC
:1027F00003AB00932A460F4B04A93046AFF3008089
:10280000421CD7D1AB895B063FF532AF099831E75F
:1028100003AB00932A46074B04A9304600F082F828
:10282000EEE700BF802D0008862D00088A2D0008E5
:1028300000000000892500082DE9F04791469846E0
:102840008A680B69089E9342B8BF1346C9F80030E6
:1028500091F8432007460C4612B10133C9F8003005
:102860002368990642BFD9F800300233C9F8003016
:10287000256815F0060507D104F1190AE368D9F8AF
:1028800000209B1AAB4229DC94F843302268003BBD
:1028900018BF012392062ED404F143024146384664
:1028A000B047013021D02368A168226903F00603F4
:1028B000042B01BFE568D9F80030ED1A25EAE5756B
:1028C00018BF00258B1A2B449142C8BF1D464FF0FC
:1028D00000091A344D451AD1002008E00123524660
:1028E00041463846B047013003D14FF0FF30BDE8D4
:1028F000F0870135C2E7E1185A1C302081F8430007
:10290000224494F8451082F843100233C4E70123AF
:10291000224641463846B0470130E6D009F1010968
:10292000D8E700002DE9F04398460B7E85B0782B60
:10293000174606460C9A0C4609D8622B01F1430152
:1029400008D8002B00F0DC80582B00F0BD8004F18B
:10295000420539E0A3F163001528F8D801A555F820
:1029600020F000BFBD290008D12900084F29000828
:102970004F2900084F2900084F290008D1290008D5
:102980004F2900084F2900084F2900084F29000847
:10299000E12A0008FD2900088F2A00084F290008B5
:1029A0004F290008092B00084F290008FD290008BD
:1029B0004F2900084F290008972A00081368191D9D
:1029C0001B68116004F1420584F842300123A8E03D
:1029D00013682568181D1060280601D51B6803E0E0
:1029E0006A06FBD5B3F90030002B03DA2D225B42D7
:1029F00084F84320DFF878C10A2213E025681068C4
:102A000015F0800F50F8043B02D16D0648BF9BB211
:102A10001060227EDFF858C16F2A5DD108220020A5
:102A200084F843006568A560002D05DB20681D4320
:102A300020F00400206051D00D46B3FBF2F002FB01
:102A4000103E9A421CF80EE005F801ED0346F4D959
:102A5000082A0BD12368DA0708D5236962689A42ED
:102A6000DEBF302305F8013C05F1FF35491B21612C
:102A7000CDF800803B4603AA21463046FFF7DCFE36
:102A8000013053D14FF0FF3005B0BDE8F08323682B
:102A900043F020032360DFF8DCC0782384F845305E
:102AA0002068156810F0800F55F8043B03D110F032
:102AB000400F18BF9BB21560C50744BF40F020000F
:102AC000206023B11022AAE7DFF8A4C0E6E722685D
:102AD00022F020022260F5E70A22A0E70D46B7E7C0
:102AE0001368D4F800C060691D1D15601CF0800FCC
:102AF0001B6801D0186003E01CF0400FFAD018806A
:102B0000002323610D46B3E71368191D11601D688A
:102B100062680021284600F05BF808B1401B606045
:102B200063682361002384F84330A1E723692A46C0
:102B300039463046C0470130A4D023689B0714D4DF
:102B4000E068039B9842B8BF18469DE7012304F153
:102B5000190239463046C047013093D00135E36849
:102B600003995B1AAB42F1DCEAE70025F7E700BF07
:102B7000912D0008A22D0008884210B501EB020437
:102B800002D98442234607D8431EA14207D011F838
:102B9000012B03F8012FF8E70244824200D110BD57
:102BA00013F8011D02F8011DF7E7000038B5064CC7
:102BB000002305460846236000F09EF8431C02D11E
:102BC000236803B12B6038BDA8120020000000006C
:102BD00001F0FF01102A2BDB10F0070F08D010F8CE
:102BE000013B013A8B422DD010F0070F42B3F6D1D2
:102BF000F0B441EA012141EA014122F007047FF0EB
:102C000000070023F0E80256083C85EA010586EA41
:102C1000010685FA47F5A3FA87F586FA47F6A5FA7D
:102C200087F68EB9EED1F0BC01F0FF0102F0070289
:102C300032B110F8013B013A83EA010313B1F8D134
:102C40000020704701387047002D06BF3546033815
:102C5000073815F0010F07D1013015F4807F02BF4E
:102C6000013015F4C03F0130F0BC0138704700BF9F
:102C70000A44914200F1FF3300D1704710B511F8BA
:102C8000014B03F8014F9142F9D110BD2DE9F041FC
:102C9000074615460C4621B9BDE8F0411146FFF73D
:102CA000EBBB2AB9FFF77AFB2C462046BDE8F08142
:102CB00000F01AF88542064602D8B5EB500FF4D85A
:102CC00029463846FFF7D8FB804608B94446ECE76A
:102CD000B5422A46214628BF3246FFF7C9FF2146A2
:102CE0003846FFF75BFBF1E751F8043C181F002B57
:102CF000BCBF0B58C0187047044A05491368002B25
:102D000008BF0B461844106018467047B8120020E0
:102D1000C01200205265636569766564206D657335
:102D2000736167653A2025303258202530325820AB
:102D30002530325820253032582025303258202571
:102D40003032582025303258202530325820253056
:102D500032580D0A000000000100010001000100CE
:102D60000100010001000100020004000800100041
:102D7000400080000001000201010101020408106E
:102D8000232D302B2000686C4C0065666745464754
:102D900000303132333435363738394142434445D7
:102DA0004600303132333435363738396162636446
:102DB00065660000F8B500BFF8BC08BC9E467047C9
:0C2DC000F8B500BFF8BC08BC9E46704788
:082DCC00C0F5FF7F01000000CB
:042DD400F9010008F9
:042DD800D10100081D
:102DDC00060708090A1728000C0000200000000054
:102DEC0070110020D81100204012002000000000BB
:102DFC0000000000000000000000000000000000C7
:102E0C0000000000000000000000000000000000B6
:102E1C0000000000000000000000000000000000A6
:082E2C0000000000000000009E
:0400000508000A15D0
:00000001FF
