:020000040800F2
:100000000000022041090008B1090008B1090008F8
:10001000B1090008B1090008B1090008000000009A
:10002000000000000000000000000000B10900080E
:10003000B109000800000000B109000835090008F6
:10004000B1090008B1090008B1090008B1090008A8
:10005000B1090008B1090008F1050008FF05000812
:100060000D0600081B06000829060008B109000853
:10007000B1090008B1090008B1090008B109000878
:10008000B1090008B1090008B109000869070008B2
:1000900075070008890700089D070008DD060008AD
:1000A000B1090008B1090008B1090008B109000848
:1000B000B1090008B1090008B1090008B109000838
:1000C000B1090008B1090008B1090008B109000828
:1000D000B1090008790500088D050008A105000890
:1000E00039060008B1090008B1090008B109000883
:1000F000B1090008B1090008B1090008B1090008F8
:10010000B1090008B1090008B1090008B1090008E7
:10011000B5050008C9050008B1090008B1090008C3
:10012000B1090008B1090008B1090008B1090008C7
:10013000B1090008B1090008B1090008A9070008C1
:10014000B5070008C9070008DD070008B109000865
:10015000B1090008B1090008B1090008DD0500086F
:10016000B1090008B1090008B1090008B109000887
:10017000B1090008B1090008B10900080000000039
:08018000B1090008B1090008F3
:100188000348044B834202D0034B03B1184770471E
:100198000800002008000020000000000548064B69
:1001A8001B1AD90F01EBA301491002D0034B03B16D
:1001B80018477047080000200800002000000000D1
:1001C80010B5064C237843B9FFF7DAFF044B13B197
:1001D8000448AFF300800123237010BD08000020FD
:1001E80000000000EC1F000808B5054B1BB10549CD
:1001F8000548AFF30080BDE80840FFF7CFBF00BF58
:10020800000000000C000020EC1F000880B500AFC3
:100218004021024800F0C9FC00BF80BD0000024038
:1002280080B586B002AF00F027FE374B1B6B364A0D
:1002380043F001031363344B1B6B334A43F002034F
:100248001363314B1B6B304A43F0100313632E4B7F
:100258005B6C2D4A43F4804353642B4B1B6C2A4A36
:1002680043F40013136400F05BF800F02DF900F07C
:1002780057F9264800F0F6FA8021254800F095FC49
:10028800244A07F1080392E8030018600433198030
:1002980002330A0C1A70204801F0D1FB07F108025A
:1002A8004FF47A7300930723A0211B4801F0E6FC62
:1002B800194801F0D6FB4FF4FA7000F009FB164814
:1002C80001F0BDFB154B1B88BB803A1D4FF47A73B8
:1002D80000930223A021104801F0D0FC0E4801F041
:1002E800AEFB07F108024FF47A7300930A23A121A9
:1002F800094801F04FFD084801F0B3FB4FF4FA70CC
:1003080000F0E6FA00BFB7E700380240409002006C
:1003180000000240A01F000858000020A81F000885
:1003280080B584B000AFC0233B810123FB72012359
:10033800BB7200233B730023BB7300237B735C4AAF
:1003480007F1080353605A4B5A4A1A60584800F09C
:100358000AFC10233B810023FB720123BB7200239C
:100368003B730123BB7300237B73514A07F10803D6
:1003780053604F4B504A1A604D4800F0F4FB10236D
:10038800BB800423BB710123FB714C4A3B1D1360E6
:100398004A4B4B4A5A60494800F006FF4FF4007335
:1003A8003B810223FB7200233B730023BB730323AF
:1003B8007B730723FB733E4A07F1080353603C4BEA
:1003C8003C4A1A603A4800F0CEFB4FF480633B8108
:1003D8000223FB7200233B730023BB7303237B734D
:1003E8000723FB73324A07F108035360304B314A45
:1003F8001A602F4800F0B7FB4FF400733B810223CB
:10040800FB7200233B730023BB7303237B73092315
:10041800FB73274A07F108035360254B294A1A60E2
:10042800234800F0A0FB4FF480733B810223FB724A
:1004380000233B730023BB7303237B730923FB73E4
:100448001B4A07F108035360194B1E4A1A601848E3
:1004580000F089FB164B1B4A1A6040233B8102239C
:10046800FB7201233B730023BB7303237B730423B9
:10047800FB730F4A07F1080353600D4800F073FB44
:1004880080233B810223FB7201233B730023BB7350
:1004980003237B730423FB73054A07F108035360A6
:1004A800034800F060FB00BF1037BD4680BD00BFA9
:1004B8002400002000000240001002402C00002010
:1004C800150200080004024080B584B000AF4FF464
:1004D800E1337B600223FB7200237B720023BB7233
:1004E80000233B7200233B730A4B0B4A1A60094AEC
:1004F8003B1D5360094B5B6C084A43F0100353647F
:10050800044800F0C5FF252000F06AF900BF103745
:10051800BD4680BD34000020001001400038024074
:10052800B0B586B000AF0E4B7B600023FB74002390
:10053800BB740C4B0C4A1A600A4B1C1D3D1D0FCD99
:100548000FC42B682360094B1B6C084A43F4001343
:100558001364044801F098FA00BF1837BD46B0BDCF
:10056800A0860100580000200054004000380240D6
:1005780080B500AF024801F051F800BF80BD00BF50
:100588003400002080B500AF024801F047F800BFF2
:1005980080BD00BF3400002080B500AF024801F0E4
:1005A8003DF800BF80BD00BF3400002080B500AF1B
:1005B800024801F033F800BF80BD00BF34000020BE
:1005C80080B500AF024801F029F800BF80BD00BF28
:1005D8003400002080B500AF024801F01FF800BFCA
:1005E80080BD00BF3400002080B500AF012000F0BE
:1005F8009DFE00BF80BD80B500AF022000F096FED2
:1006080000BF80BD80B500AF042000F08FFE00BFA2
:1006180080BD80B500AF082000F088FE00BF80BD17
:1006280080B500AF102000F081FE00BF80BD000043
:1006380080B582B000AF0A23FB7100BFFB790F2B96
:100648003ED8234B5A69FB79012101FA03F3134081
:10065800002B37D0FB790F2B2BD00F2B2EDC0E2B3A
:1006680022D00E2B2ADC0D2B19D00D2B26DC0C2BBF
:1006780010D00C2B22DC0A2B02D00B2B05D01DE04E
:100688004FF4806000F052FE19E04FF4006000F073
:100698004DFE14E04FF4805000F048FE0FE04FF498
:1006A800005000F043FE0AE04FF4804000F03EFEA8
:1006B80005E04FF4004000F039FE00E000BF01E023
:1006C80000BF00E000BF00BF0837BD4680BD00BFC7
:1006D800003C014080B582B000AF0523FB7100BF2C
:1006E800FB79092B32D81D4B5A69FB79012101FA94
:1006F80003F31340002B2BD0FB79092B1FD0092BB8
:1007080022DC082B16D0082B1EDC072B0ED0072B5B
:100718001ADC052B02D0062B04D015E0202000F0AF
:1007280005FE12E0402000F001FE0EE0802000F0FF
:10073800FDFD0AE04FF4807000F0F8FD05E04FF48D
:10074800007000F0F3FD00E000BF01E000BF00E032
:1007580000BF00BF0837BD4680BD00BF003C014058
:1007680080B400AF00BFBD4680BC704780B500AF05
:100778000021024801F020F900BF80BDF4080020E4
:1007880080B500AF0121024801F016F900BF80BD15
:10079800F408002080B400AF00BFBD4680BC70479D
:1007A80080B400AF00BFBD4680BC704780B500AFC5
:1007B8000021024801F000F900BF80BD7000002050
:1007C80080B500AF0121024801F0F6F800BF80BDF6
:1007D8007000002080B400AF00BFBD4680BC7047E9
:1007E80080B483B000AF0346FB710C4AFB795B0908
:1007F800DBB252F82320FB7903F01F03012101FA31
:1008080003F30648F9794909C9B2134340F821307E
:1008180000BF0C37BD4680BC704700BF00E100E058
:1008280080B483B000AF0346FB710D4AFB795B09C6
:10083800DBB2603352F82320FB7903F01F03012158
:1008480001FA03F30648F9794909C9B21A4301F1D3
:10085800600340F8232000BF0C37BD4680BC7047BA
:1008680000E100E080B483B000AF78607B68002BC3
:1008780026D07B68B3F1807F22D2144B1B68134AC1
:1008880023F001031360114B00229A600F4B0022E2
:100898001A600E4A7B68013B53600C4B1B680B4A7D
:1008A80043F004031360094B1B68084A43F0020332
:1008B8001360064B1B68054A43F00103136000E010
:1008C80000BF0C37BD4680BC704700BF10E000E099
:1008D80080B584B000AF786000F010F8F86000BF11
:1008E80000F00CF80246FB68D31A7A689A42F7D8E7
:1008F80000BF00BF1037BD4680BD000080B400AF08
:10090800024B1B681846BD4680BC7047B0080020E3
:1009180080B400AF044B1B680133034A136000BF67
:10092800BD4680BC704700BFB008002080B500AF4E
:10093800FFF7EEFF00BF80BD80B584B000AF154A59
:10094800154BD31AFB60144BBB60144B7B6007E05C
:100958007A68531C7B60BB68591CB96012781A709E
:10096800FB685A1EFA60002BF2D10D4A0D4BD31AC0
:100978003B600C4BBB6004E0BB685A1CBA600022A9
:100988001A703B685A1E3A60002BF5D1FFF748FCF5
:1009980000BFFDE70800002000000020F41F000849
:1009A800381100200800002080B400AF00BFFDE728
:1009B80080B485B000AF78600B46FB707B685B68DD
:1009C800DB78FB737B681B681968FB785B00032284
:1009D80002FA03F3DA437B681B680A401A607B68F3
:1009E8001B681A68F97BFB785B0001FA03F3194668
:1009F8007B681B680A431A607B685B681B79BB735A
:100A08007B681B685968FB78012202FA03F3DA4312
:100A18007B681B680A405A607B681B685A68B97B08
:100A2800FB7801FA03F319467B681B680A435A608E
:100A38007B685B685B797B737B681B689968FB786C
:100A48005B00032202FA03F3DA437B681B680A405F
:100A58009A607B681B689A68797BFB785B0001FA6F
:100A680003F319467B681B680A439A607B685B68D6
:100A78009B793B737B681B68D968FB785B00032212
:100A880002FA03F3DA437B681B680A40DA607B6882
:100A98001B68DA68397BFB785B0001FA03F31946B7
:100AA8007B681B680A43DA607B685B68DB79FB72EA
:100AB800FB7B022B3AD1FB78072B1AD87B681B6883
:100AC800196AFB789B000F2202FA03F3DA437B686A
:100AD8001B680A401A627B681B681A6AF97AFB78F5
:100AE8009B0001FA03F319467B681B680A431A62E4
:100AF8001CE0FB78083BBB727B681B68596ABB7AB1
:100B08009B000F2202FA03F3DA437B681B680A4052
:100B18005A627B681B685A6AF97ABB7A9B0001FAA9
:100B280003F319467B681B680A435A627B685B6853
:100B38009B787B727B7A012B07D1FA787B681B68DC
:100B4800012101FA02F29A6108E0FB7803F1100230
:100B58007B681B68012101FA02F29A6100BF143711
:100B6800BD4680BC704780B584B000AF7860002374
:100B7800FB7312E07B685B681B881A46FB7B42FAB2
:100B880003F303F00103002B04D0FB7B19467868BC
:100B9800FFF70EFFFB7B0133FB73FB7B0F2BE9D9C0
:100BA80000BF00BF1037BD4680BD80B483B000AF22
:100BB80078600B467B807B685A697B885A407B68E3
:100BC8005A6100BF0C37BD4680BC704780B400AF87
:100BD800084B1B68074A43F00103136000BF054B2D
:100BE8001B6803F00203002BF9D000BF00BFBD460D
:100BF80080BC70470038024080B400AF084B1B68C7
:100C0800074A43F48033136000BF054B1B6803F4A5
:100C18000033002BF9D000BF00BFBD4680BC704731
:100C28000038024080B400AF084B1B68074A43F005
:100C38008073136000BF054B1B6803F00073002B23
:100C4800F9D000BF00BFBD4680BC704700380240E5
:100C580080B400AF084B1B68074A23F08073136009
:100C680000BF054B1B6803F00073002BF9D100BFD0
:100C780000BFBD4680BC70470038024080B483B0D6
:100C880000AF7860174B9B68164A23F0F003936017
:100C9800144B9A687B689B681B01124913438B604D
:100CA800104B9B680F4A23F4E05393600D4B9A68EE
:100CB8007B68DB689B020B4913438B60094B9B687D
:100CC800084A23F460439360064B9A687B681B6963
:100CD8005B03044913438B6000BF0C37BD4680BCDF
:100CE800704700BF0038024080B582B000AF78601E
:100CF8007B685B68002B18D1FFF768FF7868FFF7FF
:100D0800BDFF7B681B88DBB2184600F087F9594B9A
:100D18009B68584A23F00303936000BF554B9B68B8
:100D280003F00C03002BF9D1A0E07B685B68012B72
:100D38001ED1FFF761FF7868FFF7A0FF7B681B886B
:100D4800DBB2184600F06AF94A4B9B68494A23F01F
:100D580003039360474B9B68464A43F00103936043
:100D680000BF444B9B6803F00C03042BF9D17DE0D2
:100D78007B685B68022B79D1FFF76AFF7868FFF719
:100D88007DFF7B681B88DBB2184600F047F9394BBA
:100D98005B68384A23F03F035360364B5A687B68D8
:100DA8005B69344913434B60324B5B68314A23F427
:100DB800FF4323F0400353602E4B5A687B689B69BE
:100DC8009B012C4913434B602A4B5B68294A23F447
:100DD80040335360274B5A687B68DB691B042549FD
:100DE80013434B60234B5B68224A23F070635360C4
:100DF800204B5A687B681B6A1B061E4913434B60CD
:100E08007B6893F82430002B08D11A4B5B68194A89
:100E180023F480035360FFF7D9FE12E07B6893F850
:100E28002430012B0DD1134B5B68124A23F4800345
:100E38005360104B5B680F4A43F480035360FFF71D
:100E4800DBFEFFF7EFFE0B4B9B680A4A23F0030318
:100E58009360084B9B68074A43F00203936000BF06
:100E6800044B9B6803F00C03082BF9D100BF08372B
:100E7800BD4680BD0038024080B58AB000AF02236D
:100E88007B60A8233B80012387F8243008237B61FB
:100E98004FF4A873BB610023FB6107233B62002367
:100EA800BB600523FB6004233B613B461846FFF704
:100EB8001BFF00BF2837BD4680BD000080B489B045
:100EC80000AF294B9B689B0803F003037B617B6998
:100ED800022B0FD07B69022B3DD87B69002B03D0F6
:100EE8007B69012B03D036E0204BFB6136E0204BB9
:100EF800FB6133E01C4B5B6803F480033B611A4BD6
:100F08005B6803F03F03FB60174B5B689B09C3F307
:100F18000803BB60144B5B681B0C03F0030301332D
:100F28005B007B603B69002B05D0114AFB68B2FB74
:100F3800F3F3BB6104E00D4AFB68B2FBF3F3BB615A
:100F4800BB69BA6802FB03F33B603A687B68B2FB93
:100F5800F3F3FB6102E0054BFB6100BFFB69184638
:100F68002437BD4680BC7047003802400024F40096
:100F780000127A0080B582B000AF0A4B9B681B094B
:100F880003F00F037B60FFF799FF024606497B6871
:100F980031F81330B2FBF3F33B603B68184608376F
:100FA800BD4680BD00380240AC1F000880B582B045
:100FB80000AF0A4B9B689B0A03F007037B60FFF7AF
:100FC800D9FF024606497B680B441B78B2FBF3F352
:100FD8003B603B6818460837BD4680BD0038024074
:100FE800CC1F000880B582B000AF0A4B9B685B0B32
:100FF80003F007037B60FFF7BDFF024606497B68E5
:101008000B441B78B2FBF3F33B603B681846083788
:10101800BD4680BD00380240CC1F000880B483B0B4
:1010280000AF0346FB71FB791E2B0AD84A4B1B689D
:10103800494A23F007031360474B474A1B6813606C
:1010480084E0FB791E2B0FD9FB793C2B0CD8424B43
:101058001B68414A23F0070313603F4B1B683E4A55
:1010680043F00103136071E0FB793C2B0FD9FB7946
:101078005A2B0CD8384B1B68374A23F007031360E8
:10108800354B1B68344A43F0020313605EE0FB797A
:101098005A2B0FD9FB79782B0CD82F4B1B682E4A6B
:1010A80023F0070313602C4B1B682B4A43F0030300
:1010B80013604BE0FB79782B0FD9FB79962B0CD872
:1010C800254B1B68244A23F007031360224B1B6837
:1010D800214A43F00403136038E0FB79962B0FD9BB
:1010E800FB79A82B0CD81C4B1B681B4A23F0070361
:1010F8001360194B1B68184A43F00503136025E079
:10110800FB79A82B0FD9FB79B42B0CD8124B1B6891
:10111800114A23F0070313600F4B1B680E4A43F074
:101128000603136012E0FB79B42B0FD9FB79D82B97
:101138000CD8094B1B68084A23F007031360064BB9
:101148001B68054A43F007031360FFE700BF0C372D
:10115800BD4680BC704700BF003C024080B485B0EB
:1011680000AF03463960FB800023FB7310E0FA8868
:10117800FB7B22FA03F303F00103002B05D0FB7B72
:1011880008493A6841F8232006E0FB7B0133FB73EA
:10119800FB7B0F2BEBD900BF00BF1437BD4680BCCB
:1011A800704700BFB408002090B585B000AF7860E4
:1011B8005B4B1B687A68126812881146584A0B43C1
:1011C8001360574B5B687A68126812881146544A54
:1011D8000B4353607B681B68DB78002B09D1504BAD
:1011E8009B687A681268128811464D4A0B439360CF
:1011F80020E07B681B68DB78012B09D1484BDB6852
:101208007A68126812881146454A0B43D36011E088
:10121800434B9B687A68126812881146404A0B4310
:1012280093603F4BDB687A681268128811463C4A23
:101238000B43D3600023FB7361E07B681B681B884A
:101248001A46FB7B22FA03F303F00103002B53D069
:10125800344AFB7B9B08DBB2023352F82320FB7B2A
:1012680003F003039B000F2101FA03F3DB432D482E
:10127800F97B8908C9B21A408B1C40F82320294AF7
:10128800FB7B9B08DBB2023352F823307A68126882
:10129800927814462349FA7B9208D2B2104643EA60
:1012A8000402831C41F82320FB7B042B0DD9FB7B14
:1012B800092B0AD81C4B5B791846FFF791FA1A4B91
:1012C8005B791846FFF7ACFA16E0FB7B092B0DD9C2
:1012D800FB7B0F2B0AD8144BDB791846FFF780FAF3
:1012E800114B9B791846FFF79BFA05E0FB7B0E4AEA
:1012F800D35C1846FFF774FAFB7B0133FB73FB7B67
:101308000F2B9AD97B681B681A887B685B6819461B
:101318001046FFF723FF00BF1437BD4690BD00BF3E
:10132800003C0140003801400000002080B584B036
:1013380000AF0346FB80164B5A69FB881340002B0D
:1013480021D0134AFB8853610023FB7316E0FA8807
:10135800FB7B22FA03F303F00103002B0BD0FB7B8A
:101368000C4A52F82330002B0CD0FB7B094A52F868
:101378002330984706E0FB7B0133FB73FB7B0F2B85
:10138800E5D900E000BF00BF1037BD4680BD00BFF3
:10139800003C0140B408002080B586B000AF7860FA
:1013A8007B681B68374A934204D07B681B68364ABF
:1013B800934203D1FFF716FE786102E0FFF7F6FDCE
:1013C80078617B685B681B7A012B2BD17A6913469D
:1013D8009B0013449A001A447B685B681B685B0097
:1013E800B2FBF3F33B613B69284AA2FB03235B0989
:1013F800FB60FB68642202FB03F33A69D31ABB6003
:10140800BB68DB003233214AA2FB03235B09BB60C4
:10141800FB681901BB6803F007027B681B680A4375
:101428009A602AE07A6913469B0013449A001A448A
:101438007B685B681B689B00B2FBF3F33B613B690D
:10144800124AA2FB03235B09FB60FB68642202FBD0
:1014580003F33A69D31ABB60BB681B0132330B4AEA
:10146800A2FB03235B09BB60FB681901BB6803F09F
:101478000F027B681B680A439A6000BF1837BD4695
:1014880080BD00BF00100140001401401F85EB51D2
:1014980080B584B000AF78607B685B68FB607B6870
:1014A8001B68DA687B681B6822F40052DA60FB6804
:1014B8001B79002B08D17B681B68DA687B681B687E
:1014C80022F48052DA6007E07B681B68DA687B6880
:1014D8001B6842F48052DA60FB685B79002B08D104
:1014E8007B681B68DA687B681B6822F48062DA60B4
:1014F80024E0FB685B79022B10D17B681B68DA68F3
:101508007B681B6842F48062DA607B681B68DA6873
:101518007B681B6822F40072DA600FE07B681B6846
:10152800DA687B681B6842F48062DA607B681B6853
:10153800DA687B681B6842F40072DA607B681B68B3
:101548001A697B681B6822F440521A617B681B6821
:101558001969FB689B791A037B681B680A431A613F
:10156800FB681B7A012B08D17B681B68DA687B68EB
:101578001B6842F40042DA6007E07B681B68DA689F
:101588007B681B6822F40042DA60FB68DB79002B79
:1015980010D17B681B68DA687B681B6822F004023C
:1015A800DA607B681B68DA687B681B6842F00802AF
:1015B800DA6024E0FB68DB79012B10D17B681B68BB
:1015C800DA687B681B6822F00802DA607B681B68AF
:1015D800DA687B681B6842F00402DA600FE07B6817
:1015E8001B68DA687B681B6822F00C02DA607B688B
:1015F8001B68DA687B681B6842F00C02DA6078685E
:10160800FFF7CAFE7B681B68DA687B681B6842F4D0
:101618000052DA6000BF1037BD4680BD80B582B089
:1016280000AF78607B681B681B6803F08003002BA1
:101638002ED07B681B68DB6803F08003002B27D063
:101648007B681B7EDBB2012B7ED17B689B68591CB3
:101658007A6891601A787B681B685A607B681B6996
:101668005A1E7B681A617B681B69002B6CD17B68EA
:101678001B68DA687B681B6822F08002DA607B6886
:101688001B68DA687B681B6842F04002DA605BE03E
:101698007B681B681B6803F04003002B19D07B682C
:1016A8001B68DB6803F04003002B12D07B681B68C3
:1016B800DA687B681B6822F04002DA607B680022E7
:1016C8001A767B68DB69002B3FD07B68DB6998471B
:1016D8003BE07B681B681B6803F02003002B34D0B9
:1016E8007B681B68DB6803F02003002B2DD07B6828
:1016F8005B7EDBB2012B28D17B681B685A687B684C
:10170800DB68D2B21A707B68DB685A1C7B68DA60C7
:101718007B685B695A1E7B685A617B685B69002B32
:1017280013D17B681B68DA687B681B6822F020028B
:10173800DA607B6800225A767B681B6A002B04D02B
:101748007B681B6A984700E000BF00BF0837BD46AA
:1017580080BD84B090B484B000AF786007F11C00FD
:1017680080E80E007B681433FB60FB68B3F804382C
:101778007F2B1FD8FB68B3F80038FA681B011344A5
:101788001C4607F11C030FCB84E80F00FB68B3F875
:10179800003801339BB203F07F039AB2FB68A3F8C9
:1017A8000028FB68B3F8043801339AB2FB68A3F841
:1017B800042800E000BF1037BD4690BC04B0704755
:1017C80080B58CB002AF78607B681B6803F5D8736E
:1017D8003B6207F10C0300221A605A609A60DA60D3
:1017E8003B6A1B685B08DBB203F00103DBB27B7466
:1017F8003B6A1B6803F00403002B08D001233B74E9
:101808003B6A1B68DB08C3F31103FB6007E0002396
:101818003B743B6A1B685B0DC3F30A03FB603B6ABE
:101828005B68DBB203F00F03FB77FB7FBB7400231D
:1018380087F8273024E097F82730032B0DD83B6A28
:101848009A6897F82730DB00DA4097F82730D2B249
:1018580028333B4403F8152C0DE03B6ADA6897F807
:101868002730043BDB00DA4097F82730D2B2283320
:101878003B4403F8152C97F82730013387F82730B5
:1018880097F82720FB7F9A42D5D3BB69009307F1CD
:101898000C030ECB7868FFF75CFF7B681B68DA687F
:1018A8007B681B6842F02002DA6000BF2837BD461B
:1018B80080BD000080B58CB002AF78607B681B6883
:1018C80003F5D8733B6207F10C0300221A605A60D3
:1018D8009A60DA603B6A10331B685B08DBB203F07E
:1018E8000103DBB27B743B6A10331B6803F004030B
:1018F800002B09D001233B743B6A10331B681B0C77
:1019080003F01F03FB6008E000233B743B6A1033BD
:101918001B68DA08274B1340FB603B6A10335B688F
:10192800DBB203F00F03FB77FB7FBB74002387F860
:10193800273026E097F82730032B0ED83B6A103360
:101948009A6897F82730DB00DA4097F82730D2B248
:1019580028333B4403F8152C0EE03B6A1033DA6851
:1019680097F82730043BDB00DA4097F82730D2B2EB
:1019780028333B4403F8152C97F82730013387F8B0
:10198800273097F82720FB7F9A42D3D3BB6900936F
:1019980007F10C030ECB7868FFF7DBFE7B681B684A
:1019A8001A697B681B6842F020021A6100BF283759
:1019B800BD4680BD0000FC1F80B582B000AF7860D6
:1019C8000B46FB70FB78002B19D17B681B68DB6822
:1019D80003F00303002B0BD07868FFF7F1FE7B6858
:1019E800D3F83838002B03D07B68D3F838389847B9
:1019F8007B681B68DB687B681B68DB681BE0FB781F
:101A0800012B18D17B681B681B6903F00303002BAB
:101A18000BD07868FFF74EFF7B68D3F83C38002B73
:101A280003D07B68D3F83C3898477B681B681B69F0
:101A38007B681B681B6900BF0837BD4680BD80B442
:101A480083B000AF78607B681B681A687B681B6886
:101A580042F480721A60002318460C37BD4680BCD9
:101A6800704780B483B000AF78607B681B681A68E1
:101A78007B681B6842F400721A60002318460C3712
:101A8800BD4680BC7047000080B588B000AF786064
:101A98007B68002B01D10123E8E07B681B681A688A
:101AA8007B681B6822F001021A60FFF77FFA034681
:101AB800704AA2FB03239B0CFB617B681B685A6876
:101AC8007B681B6822F03F025A607B681B68596874
:101AD8007B681B68FA690A435A607B689B7C002B09
:101AE8003FD17B681B68DA697B681B6822F4004277
:101AF800DA61FFF75BFA02467B685B685B00B2FB62
:101B0800F3F3FB607B681B68DB697A68126823F46F
:101B18007F6323F00F03D3617B681B68D9697B68F7
:101B28001B68FA680A43DA61FFF740FA0346524A2B
:101B3800B2FBF3F34FF47A72B2FBF3F30133BB60F9
:101B48007B681B681A6A7B681B6822F03F021A626E
:101B58007B681B68196A7B681B68BA680A431A6243
:101B68007BE07B689B7C012B75D17B681B68DA69FD
:101B78007B681B6842F40042DA617B681B7D002B9E
:101B880025D1FFF713FA01467B685A6813465B00B4
:101B98001344B1FBF3F37B617B681B68DB697A68EC
:101BA800126823F47F6323F00F03D3617B681B68FB
:101BB800D9697B681B687A690A43DA617B681B68A4
:101BC800DA697B681B6822F40042DA6126E0FFF7D5
:101BD800EDF901467B685A6813469B0013449A0046
:101BE8001344B1FBF3F3BB617B681B68DB697A685C
:101BF800126823F47F6323F00F03D3617B681B68AB
:101C0800D9697B681B68BA690A43DA617B681B6813
:101C1800DA697B681B6842F40042DA61FFF7C6F9AB
:101C28000346154AB2FBF3F34FF49672B2FBF3F393
:101C380001333B617B681B681A6A7B681B6822F06A
:101C48003F021A627B681B68196A7B681B683A69DD
:101C58000A431A6201E0012308E07B681B681A68DE
:101C68007B681B6842F001021A600023184620377F
:101C7800BD4680BD83DE1B4300CA9A3B80B586B053
:101C880000AFF8607A601A460B46FB7213463B8138
:101C9800FB68002B05D07B68002B02D03B89002B0A
:101CA80001D1012370E0FEF729FE0346384A13608C
:101CB8000AE0FEF723FE0246354B1B68D31A3A6A40
:101CC8009A4201D203235FE0FB681B685B6903F05B
:101CD8000103002BEDD0FB681B68FA7A1A610AE051
:101CE800FEF70CFE02462A4B1B68D31A3A6A9A4240
:101CF80001D2032348E0FB681B685B6903F0020319
:101D0800002BEDD0FB681B685B69FB681B689B694F
:101D18000023FB8233E0FEF7F1FD02461C4B1B68F3
:101D2800D31A3A6A9A4201D203232DE0FB681B6852
:101D38005B6903F08003002BEDD0FB8A7A681344BB
:101D48001A78FB681B681A61FA8A3B89013B9A4238
:101D580012D10AE0FEF7D2FD02460D4B1B68D31ADA
:101D68003A6A9A4201D203230EE0FB681B685B695A
:101D780003F00403002BEDD0FB8A0133FB82FA8ABF
:101D88003B899A42D2D3002318461837BD4680BDF6
:101D98003411002080B586B000AFF8607A601A462A
:101DA8000B46FB7213463B81FB68002B05D07B6812
:101DB800002B02D03B89002B01D10123E5E0FEF77F
:101DC8009DFD0346734A13600AE0FEF797FD02463D
:101DD800704B1B68D31A3A6A9A4201D20323D4E0A3
:101DE800FB681B685B6903F00103002BEDD0FB68FF
:101DF8001B68FA7A1A610AE0FEF780FD0246654B15
:101E08001B68D31A3A6A9A4201D20323BDE0FB68E1
:101E18001B685B6903F00203002BEDD03B89012BA3
:101E28002BD1FB681B681A68FB681B6822F4806268
:101E38001A60FB681B685B69FB681B689B69F8682C
:101E4800FFF70FFE0AE0FEF759FD0246514B1B68EB
:101E5800D31A3A6A9A4201D2032396E0FB681B68B8
:101E68005B6903F04003002BEDD0FB681B681B691E
:101E7800DAB27B681A70002387E0FB681B681A686F
:101E8800FB681B6842F480621A60FB681B685B6928
:101E9800FB681B689B690023FB8271E0FA8A3B8917
:101EA800033B9A425AD10AE0FEF728FD0246394B15
:101EB8001B68D31A3A6A9A4201D2032365E0FB6889
:101EC8001B685B6903F00403002BEDD0FB681B68FB
:101ED8001A68FB681B6822F480621A60FB681B683A
:101EE8001A69FB8A591CF98219467B680B44D2B2DD
:101EF8001A70F868FFF7B5FDFB681B681A69FB8A5A
:101F0800591CF98219467B680B44D2B21A700AE050
:101F1800FEF7F4FC02461F4B1B68D31A3A6A9A4232
:101F280001D2032331E0FB681B685B6903F04003BF
:101F3800002BEDD0FB681B681969FB8A7A6813448B
:101F4800CAB21A7020E0FEF7D9FC0246114B1B6892
:101F5800D31A3A6A9A4201D2032316E0FB681B6837
:101F68005B6903F04003002BEDD0FB681B6819691F
:101F7800FB8A7A681344CAB21A70FB8A0133FB825F
:101F8800FA8A3B899A4289D3002318461837BD46F6
:101F980080BD00BF34110020123448656C6C6F009E
:101FA80012340000010001000100010001000100DD
:101FB8000100010002000400080010004000800039
:101FC800000100020101010102040810F8B500BF78
:101FD800F8BC08BC9E467047F8B500BFF8BC08BC02
:041FE8009E4670475A
:041FEC00F1010008F7
:041FF000C90100081B
:081FF400060708090A1728007E
:0400000508000941A5
:00000001FF
