:020000040800F2
:100000000000022031080008A1080008A10800082B
:10001000A1080008A1080008A108000800000000CD
:10002000000000000000000000000000A10800081F
:10003000A108000800000000A10800082508000829
:10004000A1080008A1080008A1080008A1080008EC
:10005000A1080008A1080008610500086F05000854
:100060007D0500088B05000899050008A108000817
:10007000A1080008A1080008A1080008A1080008BC
:10008000A1080008A1080008A1080008A1080008AC
:10009000A1080008A1080008A10800084D060008F2
:1000A000A1080008A1080008A1080008A10800088C
:1000B000A1080008A1080008A1080008A10800087C
:1000C000A1080008A1080008A1080008A10800086C
:1000D000A1080008E9040008FD0400081105000853
:1000E000A9050008A1080008A1080008A108000847
:1000F000A1080008A1080008A1080008A10800083C
:10010000A1080008A1080008A1080008A10800082B
:100110002505000839050008A1080008A108000805
:10012000A1080008A1080008A1080008A10800080B
:10013000A1080008A1080008A1080008A1080008FB
:10014000A1080008A1080008A1080008A1080008EB
:10015000A1080008A1080008A10800084D05000832
:10016000A1080008A1080008A1080008A1080008CB
:10017000A1080008A1080008A1080008000000006C
:10018000A1080008A108000880B500AF402102487E
:1001900000F087FC00BF80BD0000024080B584B045
:1001A00000AF00F0E5FD304B1B6B2F4A43F001031D
:1001B00013632D4B1B6B2C4A43F0020313632A4B32
:1001C0001B6B294A43F010031363274B5B6C264AD1
:1001D00043F480435364244B1B6C234A43F0007365
:1001E000136400F051F800F0F9F800F023F91F480B
:1001F00001F068FD1E4800F0B1FA80211D4800F0B2
:1002000050FC0D221C491D4801F084F90B221C49A9
:100210001A4801F0A1F93B4600221A605A609A6020
:10022000DA6040F223133B600223BB71AB23FB7106
:10023000CD233B723B4619460C4801F0CFFD00210F
:100240000A4801F0D7FF094B1B6B43F48063074A50
:1002500013630F220B49094801F05CF94FF4FA705F
:1002600000F0B2FAC9E700BF003802403C000020AD
:1002700040900200000002406C2600081800002098
:10028000700000207C26000880B584B000AFC02339
:100290003B810123FB720023BB7200233B730023CD
:1002A000BB7300237B73474A07F108035360454B38
:1002B000454A1A60434800F0D2FB10233B810023DB
:1002C000FB720123BB7200233B730123BB7300232A
:1002D0007B733C4A07F1080353603A4B3B4A1A6070
:1002E000384800F0BCFB1023BB800423BB71012302
:1002F000FB71374A3B1D1360354B364A5A60344810
:1003000000F0CEFE4FF400733B810223FB7200230A
:100310003B730023BB7303237B730723FB73294ABF
:1003200007F108035360274B274A1A60254800F05D
:1003300096FB4FF480633B810223FB7200233B73E7
:100340000023BB7303237B730723FB731D4A07F151
:10035000080353601B4B1C4A1A601A4800F07FFBCD
:100360004FF400733B810223FB7200233B73002395
:10037000BB7303237B730923FB73124A07F1080342
:100380005360104B144A1A600E4800F068FB4FF49B
:1003900080733B810223FB7200233B730023BB73FA
:1003A00003237B730923FB73064A07F10803536099
:1003B000044B094A1A60034800F051FB00BF103794
:1003C000BD4680BD08000020000002400010024031
:1003D00010000020890100080004024080B584B0AC
:1003E00000AF4FF4E1337B600223FB7200237B728A
:1003F0000023BB7200233B7200233B730A4B0B4A62
:100400001A60094A3B1D5360094B5B6C084A43F074
:1004100010035364044800F0B7FF252000F05CF996
:1004200000BF1037BD4680BD1800002000100140FD
:1004300000380240B0B58AB000AF002387F8223000
:10044000012387F82330002387F82530012387F81C
:100450002430002387F826300623BB820123BB7596
:100460000B23FB7502233B7607F11C0307F11402F3
:1004700092E80300186004331980194B194A1A6076
:10048000174B043307F11C0207CA83E80700144B1B
:1004900000221A63124B002283F82C20104801F02E
:1004A00019F900233B7000233B7401237B74002364
:1004B0007B600023BB600023BB740123FB74084BEB
:1004C00003F118043D460FCD0FC42B6823603B4653
:1004D0001946034801F0C2FA00BF2837BD46B0BD37
:1004E0003C0000200064004080B500AF024801F0ED
:1004F00055F800BF80BD00BF1800002080B500AFD8
:10050000024801F04BF800BF80BD00BF180000207A
:1005100080B500AF024801F041F800BF80BD00BFC8
:100520001800002080B500AF024801F037F800BF86
:1005300080BD00BF1800002080B500AF024801F068
:100540002DF800BF80BD00BF1800002080B500AFAF
:10055000024801F023F800BF80BD00BF1800002052
:1005600080B500AF012000F05DFE00BF80BD80B50A
:1005700000AF022000F056FE00BF80BD80B500AF86
:10058000042000F04FFE00BF80BD80B500AF082002
:1005900000F048FE00BF80BD80B500AF102000F025
:1005A00041FE00BF80BD000080B582B000AF0A23CD
:1005B000FB7100BFFB790F2B3ED8234B5A69FB79A7
:1005C000012101FA03F31340002B37D0FB790F2BE5
:1005D0002BD00F2B2EDC0E2B22D00E2B2ADC0D2B3A
:1005E00019D00D2B26DC0C2B10D00C2B22DC0A2B67
:1005F00002D00B2B05D01DE04FF4806000F012FEFE
:1006000019E04FF4006000F00DFE14E04FF480504C
:1006100000F008FE0FE04FF4005000F003FE0AE087
:100620004FF4804000F0FEFD05E04FF4004000F084
:10063000F9FD00E000BF01E000BF00E000BF00BF27
:100640000837BD4680BD00BF003C014080B582B088
:1006500000AF0523FB7100BFFB79092B32D81D4B7E
:100660005A69FB79012101FA03F31340002B2BD0C7
:10067000FB79092B1FD0092B22DC082B16D0082B65
:100680001EDC072B0ED0072B1ADC052B02D0062B05
:1006900004D015E0202000F0C5FD12E0402000F05D
:1006A000C1FD0EE0802000F0BDFD0AE04FF4807037
:1006B00000F0B8FD05E04FF4007000F0B3FD00E07D
:1006C00000BF01E000BF00E000BF00BF0837BD462B
:1006D00080BD00BF003C014080B483B000AF034642
:1006E000FB710C4AFB795B09DBB252F82320FB79E2
:1006F00003F01F03012101FA03F30648F9794909C0
:10070000C9B2134340F8213000BF0C37BD4680BC4E
:10071000704700BF00E100E080B483B000AF034643
:10072000FB710D4AFB795B09DBB2603352F8232081
:10073000FB7903F01F03012101FA03F30648F9795D
:100740004909C9B21A4301F1600340F8232000BFF0
:100750000C37BD4680BC704700E100E080B483B038
:1007600000AF78607B68002B26D07B68B3F1807F78
:1007700022D2144B1B68134A23F001031360114B60
:1007800000229A600F4B00221A600E4A7B68013BE0
:1007900053600C4B1B680B4A43F004031360094B76
:1007A0001B68084A43F002031360064B1B68054AA6
:1007B00043F00103136000E000BF0C37BD4680BC6E
:1007C000704700BF10E000E080B584B000AF7860F3
:1007D00000F010F8F86000BF00F00CF80246FB686B
:1007E000D31A7A689A42F7D800BF00BF1037BD46C7
:1007F00080BD000080B400AF024B1B681846BD46A8
:1008000080BC70477C00002080B400AF044B1B68A4
:100810000133034A136000BFBD4680BC704700BF70
:100820007C00002080B500AFFFF7EEFF00BF80BD69
:1008300080B584B000AF154A154BD31AFB60144B3A
:10084000BB60144B7B6007E07A68531C7B60BB681D
:10085000591CB96012781A70FB685A1EFA60002B96
:10086000F2D10D4A0D4BD31A3B600C4BBB6004E038
:10087000BB685A1CBA6000221A703B685A1E3A6064
:10088000002BF5D1FFF78AFC00BFFDE70800002030
:1008900000000020BC260008C40000200800002042
:1008A00080B400AF00BFFDE780B485B000AF7860D2
:1008B0000B46FB707B685B68DB78FB737B681B68AF
:1008C0001968FB785B00032202FA03F3DA437B68C2
:1008D0001B680A401A607B681B681A68F97BFB7802
:1008E0005B0001FA03F319467B681B680A431A6030
:1008F0007B685B681B79BB737B681B685968FB78F6
:10090000012202FA03F3DA437B681B680A405A604B
:100910007B681B685A68B97BFB7801FA03F31946B8
:100920007B681B680A435A607B685B685B797B73F2
:100930007B681B689968FB785B00032202FA03F36B
:10094000DA437B681B680A409A607B681B689A6878
:10095000797BFB785B0001FA03F319467B681B681F
:100960000A439A607B685B689B793B737B681B6872
:10097000D968FB785B00032202FA03F3DA437B6851
:100980001B680A40DA607B681B68DA68397BFB7891
:100990005B0001FA03F319467B681B680A43DA60BF
:1009A0007B685B68DB79FB72FB7B022B3AD1FB78BF
:1009B000072B1AD87B681B68196AFB789B000F22EB
:1009C00002FA03F3DA437B681B680A401A627B6809
:1009D0001B681A6AF97AFB789B0001FA03F319463F
:1009E0007B681B680A431A621CE0FB78083BBB72F9
:1009F0007B681B68596ABB7A9B000F2202FA03F3DB
:100A0000DA437B681B680A405A627B681B685A6A33
:100A1000F97ABB7A9B0001FA03F319467B681B68DD
:100A20000A435A627B685B689B787B727B7A012BF6
:100A300007D1FA787B681B68012101FA02F29A61FA
:100A400008E0FB7803F110027B681B68012101FAC2
:100A500002F29A6100BF1437BD4680BC704780B572
:100A600084B000AF78600023FB7312E07B685B68A2
:100A70001B881A46FB7B42FA03F303F00103002BA9
:100A800004D0FB7B19467868FFF70EFFFB7B013330
:100A9000FB73FB7B0F2BE9D900BF00BF1037BD46AE
:100AA00080BD80B483B000AF78600B467B807B68EC
:100AB0005A697B885A407B685A6100BF0C37BD4633
:100AC00080BC704780B400AF084B1B68074A43F0F6
:100AD0000103136000BF054B1B6803F00203002BEA
:100AE000F9D000BF00BFBD4680BC7047003802404F
:100AF00080B400AF084B1B68074A43F4803313608F
:100B000000BF054B1B6803F40033002BF9D000BF76
:100B100000BFBD4680BC70470038024080B400AFC3
:100B2000084B1B68074A43F08073136000BF054BF6
:100B30001B6803F00073002BF9D000BF00BFBD4657
:100B400080BC70470038024080B400AF084B1B687F
:100B5000074A23F08073136000BF054B1B6803F046
:100B60000073002BF9D100BF00BFBD4680BC7047A9
:100B70000038024080B483B000AF7860174B9B68A8
:100B8000164A23F0F0039360144B9A687B689B68C5
:100B90001B01124913438B60104B9B680F4A23F4CF
:100BA000E05393600D4B9A687B68DB689B020B49AE
:100BB00013438B60094B9B68084A23F4604393609E
:100BC000064B9A687B681B695B03044913438B607F
:100BD00000BF0C37BD4680BC704700BF00380240E4
:100BE00080B582B000AF78607B685B68002B18D15D
:100BF000FFF768FF7868FFF7BDFF7B681B88DBB2F3
:100C0000184600F087F9594B9B68584A23F00303B4
:100C1000936000BF554B9B6803F00C03002BF9D188
:100C2000A0E07B685B68012B1ED1FFF761FF78684D
:100C3000FFF7A0FF7B681B88DBB2184600F06AF95B
:100C40004A4B9B68494A23F003039360474B9B68D8
:100C5000464A43F00103936000BF444B9B6803F096
:100C60000C03042BF9D17DE07B685B68022B79D102
:100C7000FFF76AFF7868FFF77DFF7B681B88DBB2B0
:100C8000184600F047F9394B5B68384A23F03F03B8
:100C90005360364B5A687B685B69344913434B6039
:100CA000324B5B68314A23F4FF4323F04003536027
:100CB0002E4B5A687B689B699B012C4913434B6000
:100CC0002A4B5B68294A23F440335360274B5A6808
:100CD0007B68DB691B04254913434B60234B5B682E
:100CE000224A23F070635360204B5A687B681B6A6A
:100CF0001B061E4913434B607B6893F82430002B7E
:100D000008D11A4B5B68194A23F480035360FFF73C
:100D1000D9FE12E07B6893F82430012B0DD1134BE0
:100D20005B68124A23F480035360104B5B680F4AE0
:100D300043F480035360FFF7DBFEFFF7EFFE0B4B3E
:100D40009B680A4A23F003039360084B9B68074A99
:100D500043F00203936000BF044B9B6803F00C0355
:100D6000082BF9D100BF0837BD4680BD00380240CE
:100D700080B58AB000AF02237B60A8233B800123AB
:100D800087F8243008237B614FF4A873BB610023EC
:100D9000FB6107233B620023BB600523FB60042348
:100DA0003B613B461846FFF71BFF00BF2837BD4697
:100DB00080BD000080B489B000AF294B9B689B08C0
:100DC00003F003037B617B69022B0FD07B69022B4D
:100DD0003DD87B69002B03D07B69012B03D036E023
:100DE000204BFB6136E0204BFB6133E01C4B5B6822
:100DF00003F480033B611A4B5B6803F03F03FB6025
:100E0000174B5B689B09C3F30803BB60144B5B681B
:100E10001B0C03F0030301335B007B603B69002B79
:100E200005D0114AFB68B2FBF3F3BB6104E00D4A45
:100E3000FB68B2FBF3F3BB61BB69BA6802FB03F367
:100E40003B603A687B68B2FBF3F3FB6102E0054B61
:100E5000FB6100BFFB6918462437BD4680BC704764
:100E6000003802400024F40000127A0080B582B0FD
:100E700000AF0A4B9B681B0903F00F037B60FFF771
:100E800099FF024606497B6831F81330B2FBF3F351
:100E90003B603B6818460837BD4680BD00380240BD
:100EA0008C26000880B582B000AF0A4B9B689B0A75
:100EB00003F007037B60FFF7D9FF024606497B6812
:100EC0000B441B78B2FBF3F33B603B6818460837D2
:100ED000BD4680BD00380240AC26000880B582B017
:100EE00000AF0A4B9B685B0B03F007037B60FFF7C7
:100EF000BDFF024606497B680B441B78B2FBF3F347
:100F00003B603B6818460837BD4680BD003802404C
:100F1000AC26000880B483B000AF0346FB71FB79B8
:100F20001E2B0AD84A4B1B68494A23F0070313605B
:100F3000474B474A1B68136084E0FB791E2B0FD98F
:100F4000FB793C2B0CD8424B1B68414A23F007032A
:100F500013603F4B1B683E4A43F00103136071E08E
:100F6000FB793C2B0FD9FB795A2B0CD8384B1B68DB
:100F7000374A23F007031360354B1B68344A43F0AC
:100F8000020313605EE0FB795A2B0FD9FB79782BB3
:100F90000CD82F4B1B682E4A23F0070313602C4BF1
:100FA0001B682B4A43F0030313604BE0FB79782B5B
:100FB0000FD9FB79962B0CD8254B1B68244A23F0BC
:100FC00007031360224B1B68214A43F0040313609C
:100FD00038E0FB79962B0FD9FB79A82B0CD81C4B4A
:100FE0001B681B4A23F007031360194B1B68184A40
:100FF00043F00503136025E0FB79A82B0FD9FB799B
:10100000B42B0CD8124B1B68114A23F00703136052
:101010000F4B1B680E4A43F00603136012E0FB7986
:10102000B42B0FD9FB79D82B0CD8094B1B68084A75
:1010300023F007031360064B1B68054A43F00703C0
:101040001360FFE700BF0C37BD4680BC704700BF90
:10105000003C024080B485B000AF03463960FB809D
:101060000023FB7310E0FA88FB7B22FA03F303F002
:101070000103002B05D0FB7B08493A6841F8232087
:1010800006E0FB7B0133FB73FB7B0F2BEBD900BF2F
:1010900000BF1437BD4680BC704700BF80000020F1
:1010A00090B585B000AF78605B4B1B687A681268BA
:1010B00012881146584A0B431360574B5B687A6895
:1010C000126812881146544A0B4353607B681B68B0
:1010D000DB78002B09D1504B9B687A681268128824
:1010E00011464D4A0B43936020E07B681B68DB7818
:1010F000012B09D1484BDB687A68126812881146C7
:10110000454A0B43D36011E0434B9B687A681268F1
:1011100012881146404A0B4393603F4BDB687A6864
:101120001268128811463C4A0B43D3600023FB73BC
:1011300061E07B681B681B881A46FB7B22FA03F37D
:1011400003F00103002B53D0344AFB7B9B08DBB236
:10115000023352F82320FB7B03F003039B000F2193
:1011600001FA03F3DB432D48F97B8908C9B21A4021
:101170008B1C40F82320294AFB7B9B08DBB20233FF
:1011800052F823307A681268927814462349FA7B21
:101190009208D2B2104643EA0402831C41F823208D
:1011A000FB7B042B0DD9FB7B092B0AD81C4B5B79ED
:1011B0001846FFF791FA1A4B5B791846FFF7ACFA1D
:1011C00016E0FB7B092B0DD9FB7B0F2B0AD8144BA8
:1011D000DB791846FFF780FA114B9B791846FFF729
:1011E0009BFA05E0FB7B0E4AD35C1846FFF774FAC6
:1011F000FB7B0133FB73FB7B0F2B9AD97B681B684E
:101200001A887B685B6819461046FFF723FF00BF0A
:101210001437BD4690BD00BF003C0140003801407E
:101220000000002080B584B000AF0346FB80164B61
:101230005A69FB881340002B21D0134AFB88536165
:101240000023FB7316E0FA88FB7B22FA03F303F01A
:101250000103002B0BD0FB7B0C4A52F82330002BF0
:101260000CD0FB7B094A52F82330984706E0FB7B01
:101270000133FB73FB7B0F2BE5D900E000BF00BF00
:101280001037BD4680BD00BF003C014080000020FB
:1012900080B586B000AF78607B681B68374A9342A0
:1012A00004D07B681B68364A934203D1FFF716FED1
:1012B000786102E0FFF7F6FD78617B685B681B7A76
:1012C000012B2BD17A6913469B0013449A001A44D0
:1012D0007B685B681B685B00B2FBF3F33B613B69B7
:1012E000284AA2FB03235B09FB60FB68642202FB24
:1012F00003F33A69D31ABB60BB68DB003233214A7F
:10130000A2FB03235B09BB60FB681901BB6803F008
:1013100007027B681B680A439A602AE07A691346D1
:101320009B0013449A001A447B685B681B689B000F
:10133000B2FBF3F33B613B69124AA2FB03235B0957
:10134000FB60FB68642202FB03F33A69D31ABB60BB
:10135000BB681B0132330B4AA2FB03235B09BB6052
:10136000FB681901BB6803F00F027B681B680A4326
:101370009A6000BF1837BD4680BD00BF0010014015
:10138000001401401F85EB5180B584B000AF786038
:101390007B685B68FB607B681B68DA687B681B683E
:1013A00022F40052DA60FB681B79002B08D17B68BD
:1013B0001B68DA687B681B6822F48052DA6007E0F9
:1013C0007B681B68DA687B681B6842F48052DA60CD
:1013D000FB685B79002B08D17B681B68DA687B6847
:1013E0001B6822F48062DA6024E0FB685B79022BE0
:1013F00010D17B681B68DA687B681B6842F48062E6
:10140000DA607B681B68DA687B681B6822F400720C
:10141000DA600FE07B681B68DA687B681B6842F45F
:101420008062DA607B681B68DA687B681B6842F45C
:101430000072DA607B681B681A697B681B6822F49B
:1014400040521A617B681B681969FB689B791A0313
:101450007B681B680A431A61FB681B7A012B08D161
:101460007B681B68DA687B681B6842F40042DA60BC
:1014700007E07B681B68DA687B681B6822F400421F
:10148000DA60FB68DB79002B10D17B681B68DA68B7
:101490007B681B6822F00402DA607B681B68DA68EC
:1014A0007B681B6842F00802DA6024E0FB68DB79A5
:1014B000012B10D17B681B68DA687B681B6822F0FF
:1014C0000802DA607B681B68DA687B681B6842F098
:1014D0000402DA600FE07B681B68DA687B681B68CF
:1014E00022F00C02DA607B681B68DA687B681B6894
:1014F00042F00C02DA607868FFF7CAFE7B681B686E
:10150000DA687B681B6842F40052DA6000BF10376B
:10151000BD4680BD80B485B000AFF860B9607A6028
:10152000FB681B7EDBB2002B11D1FB6801221A760F
:10153000FB68BA689A60FB687A681A61FB681B6886
:10154000DA68FB681B6842F08002DA6000E000BFE6
:101550001437BD4680BC704780B485B000AFF860DA
:10156000B9607A60FB685B7EDBB2002B11D1FB684F
:1015700001225A76FB68BA68DA60FB687A685A61B9
:10158000FB681B68DA68FB681B6842F02002DA60BF
:1015900000E000BF1437BD4680BC704780B582B004
:1015A00000AF78607B681B681B6803F08003002B2A
:1015B0002ED07B681B68DB6803F08003002B27D0EC
:1015C0007B681B7EDBB2012B7ED17B689B68591C3C
:1015D0007A6891601A787B681B685A607B681B691F
:1015E0005A1E7B681A617B681B69002B6CD17B6873
:1015F0001B68DA687B681B6822F08002DA607B680F
:101600001B68DA687B681B6842F04002DA605BE0C6
:101610007B681B681B6803F04003002B19D07B68B4
:101620001B68DB6803F04003002B12D07B681B684B
:10163000DA687B681B6822F04002DA607B6800226F
:101640001A767B68DB69002B3FD07B68DB699847A3
:101650003BE07B681B681B6803F02003002B34D041
:101660007B681B68DB6803F02003002B2DD07B68B0
:101670005B7EDBB2012B28D17B681B685A687B68D4
:10168000DB68D2B21A707B68DB685A1C7B68DA6050
:101690007B685B695A1E7B685A617B685B69002BBB
:1016A00013D17B681B68DA687B681B6822F0200214
:1016B000DA607B6800225A767B681B6A002B04D0B4
:1016C0007B681B6A984700E000BF00BF0837BD4633
:1016D00080BD000080B582B000AF7860FFF78AF867
:1016E0000346904A13607B68002B01D10123AEE1D1
:1016F0007B6800221A637B681B68002B07D17B681C
:101700001B6B43F001027B681A6301239FE17B6836
:1017100093F82C30022B01D1022398E17B689B7A4D
:10172000032B07D97B681B6B43F001027B681A63AC
:1017300001238CE17B689B88002B04D07B689B880D
:10174000B3F5806F07D97B681B6B43F001027B68A0
:101750001A6301237BE17B68DB79002B03D07B6874
:10176000DB79102B07D97B681B6B43F001027B6888
:101770001A6301236BE17B681B7A002B03D07B6823
:101780001B7A082B07D97B681B6B43F001027B682F
:101790001A6301235BE17B689B79002B03D07B6894
:1017A0009B79042B07D97B681B6B43F001027B6894
:1017B0001A6301234BE17B689A797B681B7A9A4212
:1017C00007D97B681B6B43F001027B681A63012316
:1017D0003DE17B68022283F82C207B681B685B68F4
:1017E00003F00203002B29D07B681B681A687B6812
:1017F0001B6822F002021A60FEF7FCFF0346494A0A
:10180000136014E0FEF7F6FF0246464B1B68D31A3E
:10181000B3F57A7F0BD97B681B6B43F002027B68C0
:101820001A637B68032283F82C2003230FE17B6873
:101830001B685B6803F00203002BE3D17B681B6825
:101840001A687B681B6842F001021A60FEF7D2FF3B
:101850000346344A136014E0FEF7CCFF0246314BD6
:101860001B68D31AB3F57A7F0BD97B681B6B43F0E7
:1018700002027B681A637B68032283F82C2003230F
:10188000E5E07B681B685B6803F00103002BE3D095
:101890007B681B681A687B681B6822F07C021A60F0
:1018A0007B681B68DA697B681B6822F04042DA615A
:1018B0007B68DB7A002B07D07B681B681A687B6823
:1018C0001B6842F040021A607B681B7B002B07D02C
:1018D0007B681B681A687B681B6842F020021A60EC
:1018E0007B685B7B002B08D07B681B681A687B6871
:1018F0001B6822F010021A6007E07B681B681A68F8
:101900007B681B6842F010021A607B689B7B002B8F
:101910000AD07B681B681A687B681B6842F0080263
:101920001A6009E0C00000207B681B681A687B68A9
:101930001B6822F008021A607B68DB7B002B08D052
:101940007B681B681A687B681B6842F004021A6097
:1019500007E07B681B681A687B681B6822F004023A
:101960001A607B689B7A032B1BD0032B22DC022B93
:101970000ED0022B1EDC002B28D0012B1AD17B6845
:101980001B68DA697B681B6842F08042DA611EE0FE
:101990007B681B68DA697B681B6842F00042DA6189
:1019A00015E07B681B68DA697B681B6842F040427F
:1019B000DA610CE07B68042283F82C207B681B6BC7
:1019C00043F001027B681A63012340E000BF7B689B
:1019D0001B68D9697B681A681F4B0B40D3617B6811
:1019E0001B68D9697B689B88013BC3F309027B684C
:1019F0001B680A43DA617B681B68D9697B68DB79FD
:101A0000013B1B0403F470227B681B680A43DA6104
:101A10007B681B68D9697B681B7A013B1B0503F453
:101A2000E0027B681B680A43DA617B681B68D9693E
:101A30007B689B79013B1B0603F040727B681B6847
:101A40000A43DA617B68012283F82C2000231846C0
:101A50000837BD4680BD00BF00FC80FC80B483B069
:101A600000AF786039607B68002B02D03B68002BA8
:101A700001D1012321E17B6800221A637B681B6886
:101A8000002B07D17B681B6B43F001027B681A6354
:101A9000012312E13B681B781B2B07D97B681B6B6A
:101AA00043F001027B681A63012306E13B681B7C5B
:101AB000012B07D97B681B6B43F001027B681A631B
:101AC0000123FAE03B685B7C012B07D97B681B6B29
:101AD00043F001027B681A630123EEE03B689B7CC4
:101AE000012B07D97B681B6B43F001027B681A63EB
:101AF0000123E2E07B681B68D3F800227B681B6847
:101B000042F00102C3F800227B681B68D3F81C1264
:101B10003B681B781A4601239340DA437B681B68B5
:101B20000A40C3F81C223B685B7C012B0FD17B6809
:101B30001B68D3F80C123B681B781A46012303FA82
:101B400002F27B681B680A43C3F80C220EE07B6834
:101B50001B68D3F80C123B681B781A46012393408C
:101B6000DA437B681B680A40C3F80C223B681B7C85
:101B7000012B0FD17B681B68D3F804123B681B78DC
:101B80001A46012303FA02F27B681B680A43C3F872
:101B900004220EE07B681B68D3F804123B681B78B4
:101BA0001A4601239340DA437B681B680A40C3F856
:101BB00004223B689B7C012B0FD17B681B68D3F808
:101BC00014123B681B781A46012303FA02F27B6861
:101BD0001B680A43C3F814220EE07B681B68D3F825
:101BE00014123B681B781A4601239340DA437B6842
:101BF0001B680A40C3F814223B685B7C012B17D199
:101C00007B681B683A68127810463A68516800F1A0
:101C1000480243F832107B6819683B681B78184605
:101C20003B689A6800F14803DB000B445A6016E0F9
:101C30007B681B683A68127810463A68516800F170
:101C4000480243F832107B6819683B681B781846D5
:101C50003B689A6800F14803DB000B445A603B681C
:101C6000DB7C012B0FD17B681B68D3F81C123B680F
:101C70001B781A46012303FA02F27B681B680A43A9
:101C8000C3F81C220EE07B681B68D3F81C123B686B
:101C90001B781A4601239340DA437B681B680A408D
:101CA000C3F81C227B681B68D3F800227B681B6882
:101CB00022F00102C3F80022002318460C37BD466B
:101CC00080BC704780B584B000AF7860FEF792FDAD
:101CD000F8607B68002B01D101237AE07B68002249
:101CE0001A637B681B68002B07D17B681B6B43F072
:101CF00001027B681A6301236BE07B6893F82C3048
:101D0000012B0CD07B6893F82C30052B07D07B6817
:101D10001B6B43F004027B681A63012359E07B6864
:101D20001B685B6803F00203002B26D07B681B68EE
:101D30001A687B681B6822F002021A60FEF75AFDDF
:101D4000F86013E0FEF756FD0246FB68D31AB3F5C0
:101D50007A7F0BD97B681B6B43F002027B681A63A6
:101D60007B68042283F82C20032332E07B681B6805
:101D70005B6803F00203002BE4D17B681B681A68E0
:101D80007B681B6822F001021A60FEF733FDF860E1
:101D900013E0FEF72FFD0246FB68D31AB3F57A7FF6
:101DA0000BD97B681B6B43F002027B681A637B686C
:101DB000042283F82C2003230BE07B681B685B68FC
:101DC00003F00103002BE4D17B68072283F82C2069
:101DD000002318461037BD4680BD000080B485B092
:101DE00000AF786039607B68002B02D03B68002B25
:101DF00001D10123F9E17B681B68002B07D17B68C7
:101E00001B6B43F001027B681A630123EDE1FF23A2
:101E1000FB737B681B689B6803F08063002B5FD0BB
:101E20003B681B79002B2ED10023FB737B681B685A
:101E3000D3F880217B681B6822F00402C3F880215C
:101E40007B681B68D3F880113B685B795A007B681C
:101E50001B680A43C3F880217B681B68D3F8802184
:101E60007B681B68C2F31402C3F880217B681B687F
:101E7000D3F880113B681B685A057B681B680A43CE
:101E8000C3F8802102E17B681B68D3F880217B685E
:101E90001B6842F00402C3F880217B681B68D3F8FA
:101EA00080113B685B795A007B681B680A43C3F862
:101EB00080217B681B68D3F880117B681A68A34B6C
:101EC0000B40C2F880317B681B68D3F880113B68F7
:101ED0001B68DA007B681B680A43C3F88021D5E0E1
:101EE0007B681B689B6803F00063002B5FD00123B5
:101EF000FB733B681B79002B2CD17B681B68D3F8E4
:101F000090217B681B6822F00402C3F890217B6853
:101F10001B68D3F890113B685B795A007B681B689B
:101F20000A43C3F890217B681B68D3F890217B6833
:101F30001B68C2F31402C3F890217B681B68D3F8B6
:101F400090113B681B685A057B681B680A43C3F8FD
:101F500090219BE07B681B68D3F890217B681B680D
:101F600042F00402C3F890217B681B68D3F89011FB
:101F70003B685B795A007B681B680A43C3F8902171
:101F80007B681B68D3F890117B681A686F4B0B4015
:101F9000C2F890317B681B68D3F890113B681B68CE
:101FA000DA007B681B680A43C3F890216EE07B6807
:101FB0001B689B6803F08053002B5FD00223FB73E8
:101FC0003B681B79002B2CD17B681B68D3F8A021C0
:101FD0007B681B6822F00402C3F8A0217B681B68A1
:101FE000D3F8A0113B685B795A007B681B680A43F1
:101FF000C3F8A0217B681B68D3F8A0217B681B680D
:10200000C2F31402C3F8A0217B681B68D3F8A011A7
:102010003B681B685A057B681B680A43C3F8A0210C
:1020200034E07B681B68D3F8A0217B681B6842F012
:102030000402C3F8A0217B681B68D3F8A0113B6899
:102040005B795A007B681B680A43C3F8A0217B6850
:102050001B68D3F8A0117B681A683C4B0B40C2F890
:10206000A0317B681B68D3F8A0113B681B68DA00BD
:102070007B681B680A43C3F8A02107E07B681B6BE1
:1020800043F010027B681A630223AEE07B681A6893
:10209000FB7B18331B01134404331A687B681968EF
:1020A000FB7B22F00F0218331B010B4404331A6030
:1020B0007B681A68FB7B18331B01134404331A68CE
:1020C0003B689B7918467B681968FB7B0243183391
:1020D0001B010B4404331A600023BB736FE0BB7B0E
:1020E000032B35D87B681A68FB7B1B01134403F56F
:1020F000C4731868BB7BDB00FF2202FA03F3DA43E8
:102100007B681968FB7B02401B010B4403F5C47319
:102110001A607B681A68FB7B1B01134403F5C473C8
:102120001A68BB7B39680B44DB791946BB7BDB0043
:1021300001FA03F318467B681968FB7B02431B0115
:102140000B4403F5C4731A6036E000BF0700E0FFDC
:102150007B681A68FB7B1B01134403F5C673186880
:10216000BB7B043BDB00FF2202FA03F3DA437B680C
:102170001968FB7B02401B010B4403F5C6731A6010
:102180007B681A68FB7B1B01134403F5C6731A684E
:10219000BB7B39680B44DB791946BB7B043BDB0016
:1021A00001FA03F318467B681968FB7B02431B01A5
:1021B0000B4403F5C6731A60BB7B0133BB733B68EA
:1021C0009B79BA7B9A428AD37B681A68FB7B183367
:1021D0001B0113441A687B681968FB7B42F00102FB
:1021E00018331B010B441A60002318461437BD46F0
:1021F00080BC704780B487B000AF78600B46FB703E
:102200007B68002B01D103232AE27B681B68002B2B
:1022100007D17B681B6B43F001027B681A630323C1
:102220001EE2FB78022B00F06381022B00F3118287
:10223000002B03D0012B00F0AA800AE27B681B6808
:102240009B6803F00103002B00F09F807B681B68F4
:102250009B6803F00203002B09D07B681B689A6817
:102260007B681B6842F001029A600123F8E17B68F9
:102270001B689B6803F00803002B05D07B681B6B71
:1022800043F008027B681A637B681B689B6903F054
:102290000203002B05D07B681B6B43F400327B6884
:1022A0001A637B681B689B6903F00103002B05D050
:1022B0007B681B6B43F480327B681A637B681B6806
:1022C0009B6903F00403002B05D07B681B6B43F470
:1022D00080227B681A637B681B689B6903F070032C
:1022E000002B50D07B681B689B691B0903F0070318
:1022F000FB60FB68062B3ED0FB68062B42D8FB68D0
:10230000052B31D0FB68052B3CD8FB68042B24D06F
:10231000FB68042B36D8FB68032B17D0FB68032B14
:1023200030D8FB68012B03D0FB68022B07D029E0D3
:102330007B681B6B43F480727B681A6323E07B68C5
:102340001B6B43F400727B681A631CE07B681B6B99
:1023500043F480627B681A6315E07B681B6B43F46F
:1023600000627B681A630EE07B681B6B43F480524B
:102370007B681A6307E07B681B6B43F400527B6841
:102380001A6300E000BF02236AE1002368E17B6872
:102390001B689B6803F48073002B00F0A7807B68A8
:1023A0001B689B6803F40073002B09D07B681B68D3
:1023B0009A687B681B6842F480729A6001234FE13F
:1023C0007B681B689A687B681B6842F480729A601D
:1023D0007B681B689B6803F40063002B05D07B6857
:1023E0001B6B43F008027B681A637B681B689B6960
:1023F00003F00203002B05D07B681B6B43F4003213
:102400007B681A637B681B689B6903F00103002BE0
:1024100005D07B681B6B43F480327B681A637B6852
:102420001B689B6903F00403002B05D07B681B6BC2
:1024300043F480227B681A637B681B689B6903F006
:102440007003002B50D07B681B689B691B0903F04D
:1024500007033B613B69062B3ED03B69062B42D804
:102460003B69052B31D03B69052B3CD83B69042BDC
:1024700024D03B69042B36D83B69032B17D03B692A
:10248000032B30D83B69012B03D03B69022B07D0CB
:1024900029E07B681B6B43F480727B681A6323E03E
:1024A0007B681B6B43F400727B681A631CE07B68DB
:1024B0001B6B43F480627B681A6315E07B681B6BBF
:1024C00043F400627B681A630EE07B681B6B43F485
:1024D00080527B681A6307E07B681B6B43F40052F1
:1024E0007B681A6300E000BF0223B9E00023B7E075
:1024F0007B681B689B6803F48033002B00F0A78087
:102500007B681B689B6803F40033002B09D07B6851
:102510001B689A687B681B6842F480329A600123CA
:102520009EE07B681B689B6803F40023002B05D0AA
:102530007B681B6B43F008027B681A637B681B682F
:102540009B6903F00203002B05D07B681B6B43F4EF
:1025500000327B681A637B681B689B6903F0010388
:10256000002B05D07B681B6B43F480327B681A63B9
:102570007B681B689B6903F00403002B05D07B6814
:102580001B6B43F480227B681A637B681B689B6922
:1025900003F07003002B50D07B681B689B691B09FC
:1025A00003F007037B617B69062B3ED07B69062B1A
:1025B00042D87B69052B31D07B69052B3CD87B69E0
:1025C000042B24D07B69042B36D87B69032B17D0CE
:1025D0007B69032B30D87B69012B03D07B69022BED
:1025E00007D029E07B681B6B43F480727B681A6319
:1025F00023E07B681B6B43F400727B681A631CE06A
:102600007B681B6B43F480627B681A6315E07B6810
:102610001B6B43F400627B681A630EE07B681B6BE4
:1026200043F480527B681A6307E07B681B6B43F4BA
:1026300000527B681A6300E000BF7B681B689A68E1
:102640007B681B6842F480329A60022308E0002312
:1026500006E07B681B6B43F001027B681A6303236F
:1026600018461C37BD4680BC7047000048656C6C3E
:102670006F20576F726C640D0A00000043414E20BA
:1026800041434B206572726F720D0A000100010018
:10269000010001000100010001000100020004002E
:1026A000080010004000800000010002010101014B
:0426B0000204081008
:0426B400F8B500BFB6
:0426B800F8B500BFB2
:0826BC00060708090A172800AF
:0400000508000831B6
:00000001FF
